{
	"HolaMundo.sol": {
		"HolaMundo": {
			"abi": [
				{
					"inputs": [],
					"stateMutability": "nonpayable",
					"type": "constructor"
				},
				{
					"inputs": [
						{
							"internalType": "string",
							"name": "_newMessage",
							"type": "string"
						}
					],
					"name": "cambiarMensaje",
					"outputs": [],
					"stateMutability": "nonpayable",
					"type": "function"
				},
				{
					"inputs": [],
					"name": "contador",
					"outputs": [
						{
							"internalType": "uint256",
							"name": "",
							"type": "uint256"
						}
					],
					"stateMutability": "view",
					"type": "function"
				},
				{
					"inputs": [],
					"name": "dueno",
					"outputs": [
						{
							"internalType": "address",
							"name": "",
							"type": "address"
						}
					],
					"stateMutability": "view",
					"type": "function"
				},
				{
					"inputs": [],
					"name": "message",
					"outputs": [
						{
							"internalType": "string",
							"name": "",
							"type": "string"
						}
					],
					"stateMutability": "view",
					"type": "function"
				},
				{
					"inputs": [],
					"name": "obtenerContador",
					"outputs": [
						{
							"internalType": "uint256",
							"name": "",
							"type": "uint256"
						}
					],
					"stateMutability": "view",
					"type": "function"
				},
				{
					"inputs": [],
					"name": "obtenerDueno",
					"outputs": [
						{
							"internalType": "address",
							"name": "",
							"type": "address"
						}
					],
					"stateMutability": "view",
					"type": "function"
				}
			],
			"devdoc": {
				"kind": "dev",
				"methods": {},
				"version": 1
			},
			"evm": {
				"assembly": "    /* \"HolaMundo.sol\":60:1051  contract HolaMundo {\r... */\n  mstore(0x40, 0x80)\n    /* \"HolaMundo.sol\":392:552  constructor(){\r... */\n  callvalue\n  dup1\n  iszero\n  tag_1\n  jumpi\n  0x00\n  dup1\n  revert\ntag_1:\n  pop\n    /* \"HolaMundo.sol\":416:463  message = \"Hola Blockchain! Mi primer contrato\" */\n  mload(0x40)\n  dup1\n  0x60\n  add\n  0x40\n  mstore\n  dup1\n  0x23\n  dup2\n  mstore\n  0x20\n  add\n  data_9a96f7227115a9be9157eed2db6c2aa75a637a9936263c37772241c2fcd2dcc2\n  0x23\n  swap2\n  codecopy\n    /* \"HolaMundo.sol\":416:423  message */\n  0x00\n    /* \"HolaMundo.sol\":416:463  message = \"Hola Blockchain! Mi primer contrato\" */\n  swap1\n  dup1\n  mload\n  swap1\n  0x20\n  add\n  swap1\n  tag_4\n  swap3\n  swap2\n  swap1\n  tag_5\n  jump\t// in\ntag_4:\n  pop\n    /* \"HolaMundo.sol\":485:486  0 */\n  0x00\n    /* \"HolaMundo.sol\":474:482  contador */\n  0x01\n    /* \"HolaMundo.sol\":474:486  contador = 0 */\n  dup2\n  swap1\n  sstore\n  pop\n    /* \"HolaMundo.sol\":505:515  msg.sender */\n  caller\n    /* \"HolaMundo.sol\":497:502  dueno */\n  0x02\n  0x00\n    /* \"HolaMundo.sol\":497:515  dueno = msg.sender */\n  0x0100\n  exp\n  dup2\n  sload\n  dup2\n  0xffffffffffffffffffffffffffffffffffffffff\n  mul\n  not\n  and\n  swap1\n  dup4\n  0xffffffffffffffffffffffffffffffffffffffff\n  and\n  mul\n  or\n  swap1\n  sstore\n  pop\n    /* \"HolaMundo.sol\":60:1051  contract HolaMundo {\r... */\n  jump(tag_6)\ntag_5:\n  dup3\n  dup1\n  sload\n  tag_7\n  swap1\n  tag_8\n  jump\t// in\ntag_7:\n  swap1\n  0x00\n  mstore\n  keccak256(0x00, 0x20)\n  swap1\n  0x1f\n  add\n  0x20\n  swap1\n  div\n  dup2\n  add\n  swap3\n  dup3\n  tag_10\n  jumpi\n  0x00\n  dup6\n  sstore\n  jump(tag_9)\ntag_10:\n  dup3\n  0x1f\n  lt\n  tag_11\n  jumpi\n  dup1\n  mload\n  not(0xff)\n  and\n  dup4\n  dup1\n  add\n  or\n  dup6\n  sstore\n  jump(tag_9)\ntag_11:\n  dup3\n  dup1\n  add\n  0x01\n  add\n  dup6\n  sstore\n  dup3\n  iszero\n  tag_9\n  jumpi\n  swap2\n  dup3\n  add\ntag_12:\n  dup3\n  dup2\n  gt\n  iszero\n  tag_13\n  jumpi\n  dup3\n  mload\n  dup3\n  sstore\n  swap2\n  0x20\n  add\n  swap2\n  swap1\n  0x01\n  add\n  swap1\n  jump(tag_12)\ntag_13:\ntag_9:\n  pop\n  swap1\n  pop\n  tag_14\n  swap2\n  swap1\n  tag_15\n  jump\t// in\ntag_14:\n  pop\n  swap1\n  jump\t// out\ntag_15:\ntag_16:\n  dup1\n  dup3\n  gt\n  iszero\n  tag_17\n  jumpi\n  0x00\n  dup2\n  0x00\n  swap1\n  sstore\n  pop\n  0x01\n  add\n  jump(tag_16)\ntag_17:\n  pop\n  swap1\n  jump\t// out\n    /* \"#utility.yul\":7:327   */\ntag_8:\n  0x00\n    /* \"#utility.yul\":88:89   */\n  0x02\n    /* \"#utility.yul\":82:86   */\n  dup3\n    /* \"#utility.yul\":78:90   */\n  div\n    /* \"#utility.yul\":68:90   */\n  swap1\n  pop\n    /* \"#utility.yul\":135:136   */\n  0x01\n    /* \"#utility.yul\":129:133   */\n  dup3\n    /* \"#utility.yul\":125:137   */\n  and\n    /* \"#utility.yul\":156:174   */\n  dup1\n    /* \"#utility.yul\":146:148   */\n  tag_20\n  jumpi\n    /* \"#utility.yul\":212:216   */\n  0x7f\n    /* \"#utility.yul\":204:210   */\n  dup3\n    /* \"#utility.yul\":200:217   */\n  and\n    /* \"#utility.yul\":190:217   */\n  swap2\n  pop\n    /* \"#utility.yul\":146:148   */\ntag_20:\n    /* \"#utility.yul\":274:276   */\n  0x20\n    /* \"#utility.yul\":266:272   */\n  dup3\n    /* \"#utility.yul\":263:277   */\n  lt\n    /* \"#utility.yul\":243:261   */\n  dup2\n    /* \"#utility.yul\":240:278   */\n  eq\n    /* \"#utility.yul\":237:239   */\n  iszero\n  tag_21\n  jumpi\n    /* \"#utility.yul\":293:311   */\n  tag_22\n  tag_23\n  jump\t// in\ntag_22:\n    /* \"#utility.yul\":237:239   */\ntag_21:\n    /* \"#utility.yul\":58:327   */\n  pop\n  swap2\n  swap1\n  pop\n  jump\t// out\n    /* \"#utility.yul\":333:513   */\ntag_23:\n    /* \"#utility.yul\":381:458   */\n  0x4e487b7100000000000000000000000000000000000000000000000000000000\n    /* \"#utility.yul\":378:379   */\n  0x00\n    /* \"#utility.yul\":371:459   */\n  mstore\n    /* \"#utility.yul\":478:482   */\n  0x22\n    /* \"#utility.yul\":475:476   */\n  0x04\n    /* \"#utility.yul\":468:483   */\n  mstore\n    /* \"#utility.yul\":502:506   */\n  0x24\n    /* \"#utility.yul\":499:500   */\n  0x00\n    /* \"#utility.yul\":492:507   */\n  revert\n    /* \"HolaMundo.sol\":60:1051  contract HolaMundo {\r... */\ntag_6:\n  dataSize(sub_0)\n  dup1\n  dataOffset(sub_0)\n  0x00\n  codecopy\n  0x00\n  return\nstop\ndata_9a96f7227115a9be9157eed2db6c2aa75a637a9936263c37772241c2fcd2dcc2 486f6c6120426c6f636b636861696e21204d69207072696d657220636f6e747261746f\n\nsub_0: assembly {\n        /* \"HolaMundo.sol\":60:1051  contract HolaMundo {\r... */\n      mstore(0x40, 0x80)\n      callvalue\n      dup1\n      iszero\n      tag_1\n      jumpi\n      0x00\n      dup1\n      revert\n    tag_1:\n      pop\n      jumpi(tag_2, lt(calldatasize, 0x04))\n      shr(0xe0, calldataload(0x00))\n      dup1\n      0x52a07d18\n      eq\n      tag_3\n      jumpi\n      dup1\n      0x53d27cc2\n      eq\n      tag_4\n      jumpi\n      dup1\n      0x77d0c9f2\n      eq\n      tag_5\n      jumpi\n      dup1\n      0x9e0ce0ea\n      eq\n      tag_6\n      jumpi\n      dup1\n      0xbf2f64d3\n      eq\n      tag_7\n      jumpi\n      dup1\n      0xe21f37ce\n      eq\n      tag_8\n      jumpi\n    tag_2:\n      0x00\n      dup1\n      revert\n        /* \"HolaMundo.sol\":307:327  address public dueno */\n    tag_3:\n      tag_9\n      tag_10\n      jump\t// in\n    tag_9:\n      mload(0x40)\n      tag_11\n      swap2\n      swap1\n      tag_12\n      jump\t// in\n    tag_11:\n      mload(0x40)\n      dup1\n      swap2\n      sub\n      swap1\n      return\n        /* \"HolaMundo.sol\":233:256  uint256 public contador */\n    tag_4:\n      tag_13\n      tag_14\n      jump\t// in\n    tag_13:\n      mload(0x40)\n      tag_15\n      swap2\n      swap1\n      tag_16\n      jump\t// in\n    tag_15:\n      mload(0x40)\n      dup1\n      swap2\n      sub\n      swap1\n      return\n        /* \"HolaMundo.sol\":809:900  function obtenerContador() public view returns (uint256) {\r... */\n    tag_5:\n      tag_17\n      tag_18\n      jump\t// in\n    tag_17:\n      mload(0x40)\n      tag_19\n      swap2\n      swap1\n      tag_16\n      jump\t// in\n    tag_19:\n      mload(0x40)\n      dup1\n      swap2\n      sub\n      swap1\n      return\n        /* \"HolaMundo.sol\":613:760  function cambiarMensaje(string memory _newMessage) public {\r... */\n    tag_6:\n      tag_20\n      0x04\n      dup1\n      calldatasize\n      sub\n      dup2\n      add\n      swap1\n      tag_21\n      swap2\n      swap1\n      tag_22\n      jump\t// in\n    tag_21:\n      tag_23\n      jump\t// in\n    tag_20:\n      stop\n        /* \"HolaMundo.sol\":961:1046  function obtenerDueno() public view returns (address) {\r... */\n    tag_7:\n      tag_24\n      tag_25\n      jump\t// in\n    tag_24:\n      mload(0x40)\n      tag_26\n      swap2\n      swap1\n      tag_12\n      jump\t// in\n    tag_26:\n      mload(0x40)\n      dup1\n      swap2\n      sub\n      swap1\n      return\n        /* \"HolaMundo.sol\":144:165  string public message */\n    tag_8:\n      tag_27\n      tag_28\n      jump\t// in\n    tag_27:\n      mload(0x40)\n      tag_29\n      swap2\n      swap1\n      tag_30\n      jump\t// in\n    tag_29:\n      mload(0x40)\n      dup1\n      swap2\n      sub\n      swap1\n      return\n        /* \"HolaMundo.sol\":307:327  address public dueno */\n    tag_10:\n      0x02\n      0x00\n      swap1\n      sload\n      swap1\n      0x0100\n      exp\n      swap1\n      div\n      0xffffffffffffffffffffffffffffffffffffffff\n      and\n      dup2\n      jump\t// out\n        /* \"HolaMundo.sol\":233:256  uint256 public contador */\n    tag_14:\n      sload(0x01)\n      dup2\n      jump\t// out\n        /* \"HolaMundo.sol\":809:900  function obtenerContador() public view returns (uint256) {\r... */\n    tag_18:\n        /* \"HolaMundo.sol\":857:864  uint256 */\n      0x00\n        /* \"HolaMundo.sol\":884:892  contador */\n      sload(0x01)\n        /* \"HolaMundo.sol\":877:892  return contador */\n      swap1\n      pop\n        /* \"HolaMundo.sol\":809:900  function obtenerContador() public view returns (uint256) {\r... */\n      swap1\n      jump\t// out\n        /* \"HolaMundo.sol\":613:760  function cambiarMensaje(string memory _newMessage) public {\r... */\n    tag_23:\n        /* \"HolaMundo.sol\":692:703  _newMessage */\n      dup1\n        /* \"HolaMundo.sol\":682:689  message */\n      0x00\n        /* \"HolaMundo.sol\":682:703  message = _newMessage */\n      swap1\n      dup1\n      mload\n      swap1\n      0x20\n      add\n      swap1\n      tag_33\n      swap3\n      swap2\n      swap1\n      tag_34\n      jump\t// in\n    tag_33:\n      pop\n        /* \"HolaMundo.sol\":714:722  contador */\n      0x01\n      0x00\n        /* \"HolaMundo.sol\":714:724  contador++ */\n      dup2\n      sload\n      dup1\n      swap3\n      swap2\n      swap1\n      tag_35\n      swap1\n      tag_36\n      jump\t// in\n    tag_35:\n      swap2\n      swap1\n      pop\n      sstore\n      pop\n        /* \"HolaMundo.sol\":613:760  function cambiarMensaje(string memory _newMessage) public {\r... */\n      pop\n      jump\t// out\n        /* \"HolaMundo.sol\":961:1046  function obtenerDueno() public view returns (address) {\r... */\n    tag_25:\n        /* \"HolaMundo.sol\":1006:1013  address */\n      0x00\n        /* \"HolaMundo.sol\":1033:1038  dueno */\n      0x02\n      0x00\n      swap1\n      sload\n      swap1\n      0x0100\n      exp\n      swap1\n      div\n      0xffffffffffffffffffffffffffffffffffffffff\n      and\n        /* \"HolaMundo.sol\":1026:1038  return dueno */\n      swap1\n      pop\n        /* \"HolaMundo.sol\":961:1046  function obtenerDueno() public view returns (address) {\r... */\n      swap1\n      jump\t// out\n        /* \"HolaMundo.sol\":144:165  string public message */\n    tag_28:\n      0x00\n      dup1\n      sload\n      tag_38\n      swap1\n      tag_39\n      jump\t// in\n    tag_38:\n      dup1\n      0x1f\n      add\n      0x20\n      dup1\n      swap2\n      div\n      mul\n      0x20\n      add\n      mload(0x40)\n      swap1\n      dup2\n      add\n      0x40\n      mstore\n      dup1\n      swap3\n      swap2\n      swap1\n      dup2\n      dup2\n      mstore\n      0x20\n      add\n      dup3\n      dup1\n      sload\n      tag_40\n      swap1\n      tag_39\n      jump\t// in\n    tag_40:\n      dup1\n      iszero\n      tag_41\n      jumpi\n      dup1\n      0x1f\n      lt\n      tag_42\n      jumpi\n      0x0100\n      dup1\n      dup4\n      sload\n      div\n      mul\n      dup4\n      mstore\n      swap2\n      0x20\n      add\n      swap2\n      jump(tag_41)\n    tag_42:\n      dup3\n      add\n      swap2\n      swap1\n      0x00\n      mstore\n      keccak256(0x00, 0x20)\n      swap1\n    tag_43:\n      dup2\n      sload\n      dup2\n      mstore\n      swap1\n      0x01\n      add\n      swap1\n      0x20\n      add\n      dup1\n      dup4\n      gt\n      tag_43\n      jumpi\n      dup3\n      swap1\n      sub\n      0x1f\n      and\n      dup3\n      add\n      swap2\n    tag_41:\n      pop\n      pop\n      pop\n      pop\n      pop\n      dup2\n      jump\t// out\n    tag_34:\n      dup3\n      dup1\n      sload\n      tag_44\n      swap1\n      tag_39\n      jump\t// in\n    tag_44:\n      swap1\n      0x00\n      mstore\n      keccak256(0x00, 0x20)\n      swap1\n      0x1f\n      add\n      0x20\n      swap1\n      div\n      dup2\n      add\n      swap3\n      dup3\n      tag_46\n      jumpi\n      0x00\n      dup6\n      sstore\n      jump(tag_45)\n    tag_46:\n      dup3\n      0x1f\n      lt\n      tag_47\n      jumpi\n      dup1\n      mload\n      not(0xff)\n      and\n      dup4\n      dup1\n      add\n      or\n      dup6\n      sstore\n      jump(tag_45)\n    tag_47:\n      dup3\n      dup1\n      add\n      0x01\n      add\n      dup6\n      sstore\n      dup3\n      iszero\n      tag_45\n      jumpi\n      swap2\n      dup3\n      add\n    tag_48:\n      dup3\n      dup2\n      gt\n      iszero\n      tag_49\n      jumpi\n      dup3\n      mload\n      dup3\n      sstore\n      swap2\n      0x20\n      add\n      swap2\n      swap1\n      0x01\n      add\n      swap1\n      jump(tag_48)\n    tag_49:\n    tag_45:\n      pop\n      swap1\n      pop\n      tag_50\n      swap2\n      swap1\n      tag_51\n      jump\t// in\n    tag_50:\n      pop\n      swap1\n      jump\t// out\n    tag_51:\n    tag_52:\n      dup1\n      dup3\n      gt\n      iszero\n      tag_53\n      jumpi\n      0x00\n      dup2\n      0x00\n      swap1\n      sstore\n      pop\n      0x01\n      add\n      jump(tag_52)\n    tag_53:\n      pop\n      swap1\n      jump\t// out\n        /* \"#utility.yul\":7:351   */\n    tag_55:\n      0x00\n        /* \"#utility.yul\":110:175   */\n      tag_57\n        /* \"#utility.yul\":125:174   */\n      tag_58\n        /* \"#utility.yul\":167:173   */\n      dup5\n        /* \"#utility.yul\":125:174   */\n      tag_59\n      jump\t// in\n    tag_58:\n        /* \"#utility.yul\":110:175   */\n      tag_60\n      jump\t// in\n    tag_57:\n        /* \"#utility.yul\":101:175   */\n      swap1\n      pop\n        /* \"#utility.yul\":198:204   */\n      dup3\n        /* \"#utility.yul\":191:196   */\n      dup2\n        /* \"#utility.yul\":184:205   */\n      mstore\n        /* \"#utility.yul\":236:240   */\n      0x20\n        /* \"#utility.yul\":229:234   */\n      dup2\n        /* \"#utility.yul\":225:241   */\n      add\n        /* \"#utility.yul\":274:277   */\n      dup5\n        /* \"#utility.yul\":265:271   */\n      dup5\n        /* \"#utility.yul\":260:263   */\n      dup5\n        /* \"#utility.yul\":256:272   */\n      add\n        /* \"#utility.yul\":253:278   */\n      gt\n        /* \"#utility.yul\":250:252   */\n      iszero\n      tag_61\n      jumpi\n        /* \"#utility.yul\":291:292   */\n      0x00\n        /* \"#utility.yul\":288:289   */\n      dup1\n        /* \"#utility.yul\":281:293   */\n      revert\n        /* \"#utility.yul\":250:252   */\n    tag_61:\n        /* \"#utility.yul\":304:345   */\n      tag_62\n        /* \"#utility.yul\":338:344   */\n      dup5\n        /* \"#utility.yul\":333:336   */\n      dup3\n        /* \"#utility.yul\":328:331   */\n      dup6\n        /* \"#utility.yul\":304:345   */\n      tag_63\n      jump\t// in\n    tag_62:\n        /* \"#utility.yul\":91:351   */\n      pop\n      swap4\n      swap3\n      pop\n      pop\n      pop\n      jump\t// out\n        /* \"#utility.yul\":371:644   */\n    tag_64:\n      0x00\n        /* \"#utility.yul\":476:479   */\n      dup3\n        /* \"#utility.yul\":469:473   */\n      0x1f\n        /* \"#utility.yul\":461:467   */\n      dup4\n        /* \"#utility.yul\":457:474   */\n      add\n        /* \"#utility.yul\":453:480   */\n      slt\n        /* \"#utility.yul\":443:445   */\n      tag_66\n      jumpi\n        /* \"#utility.yul\":494:495   */\n      0x00\n        /* \"#utility.yul\":491:492   */\n      dup1\n        /* \"#utility.yul\":484:496   */\n      revert\n        /* \"#utility.yul\":443:445   */\n    tag_66:\n        /* \"#utility.yul\":534:540   */\n      dup2\n        /* \"#utility.yul\":521:541   */\n      calldataload\n        /* \"#utility.yul\":559:638   */\n      tag_67\n        /* \"#utility.yul\":634:637   */\n      dup5\n        /* \"#utility.yul\":626:632   */\n      dup3\n        /* \"#utility.yul\":619:623   */\n      0x20\n        /* \"#utility.yul\":611:617   */\n      dup7\n        /* \"#utility.yul\":607:624   */\n      add\n        /* \"#utility.yul\":559:638   */\n      tag_55\n      jump\t// in\n    tag_67:\n        /* \"#utility.yul\":550:638   */\n      swap2\n      pop\n        /* \"#utility.yul\":433:644   */\n      pop\n      swap3\n      swap2\n      pop\n      pop\n      jump\t// out\n        /* \"#utility.yul\":650:1025   */\n    tag_22:\n      0x00\n        /* \"#utility.yul\":768:770   */\n      0x20\n        /* \"#utility.yul\":756:765   */\n      dup3\n        /* \"#utility.yul\":747:754   */\n      dup5\n        /* \"#utility.yul\":743:766   */\n      sub\n        /* \"#utility.yul\":739:771   */\n      slt\n        /* \"#utility.yul\":736:738   */\n      iszero\n      tag_69\n      jumpi\n        /* \"#utility.yul\":784:785   */\n      0x00\n        /* \"#utility.yul\":781:782   */\n      dup1\n        /* \"#utility.yul\":774:786   */\n      revert\n        /* \"#utility.yul\":736:738   */\n    tag_69:\n        /* \"#utility.yul\":855:856   */\n      0x00\n        /* \"#utility.yul\":844:853   */\n      dup3\n        /* \"#utility.yul\":840:857   */\n      add\n        /* \"#utility.yul\":827:858   */\n      calldataload\n        /* \"#utility.yul\":885:903   */\n      0xffffffffffffffff\n        /* \"#utility.yul\":877:883   */\n      dup2\n        /* \"#utility.yul\":874:904   */\n      gt\n        /* \"#utility.yul\":871:873   */\n      iszero\n      tag_70\n      jumpi\n        /* \"#utility.yul\":917:918   */\n      0x00\n        /* \"#utility.yul\":914:915   */\n      dup1\n        /* \"#utility.yul\":907:919   */\n      revert\n        /* \"#utility.yul\":871:873   */\n    tag_70:\n        /* \"#utility.yul\":945:1008   */\n      tag_71\n        /* \"#utility.yul\":1000:1007   */\n      dup5\n        /* \"#utility.yul\":991:997   */\n      dup3\n        /* \"#utility.yul\":980:989   */\n      dup6\n        /* \"#utility.yul\":976:998   */\n      add\n        /* \"#utility.yul\":945:1008   */\n      tag_64\n      jump\t// in\n    tag_71:\n        /* \"#utility.yul\":935:1008   */\n      swap2\n      pop\n        /* \"#utility.yul\":798:1018   */\n      pop\n        /* \"#utility.yul\":726:1025   */\n      swap3\n      swap2\n      pop\n      pop\n      jump\t// out\n        /* \"#utility.yul\":1031:1149   */\n    tag_72:\n        /* \"#utility.yul\":1118:1142   */\n      tag_74\n        /* \"#utility.yul\":1136:1141   */\n      dup2\n        /* \"#utility.yul\":1118:1142   */\n      tag_75\n      jump\t// in\n    tag_74:\n        /* \"#utility.yul\":1113:1116   */\n      dup3\n        /* \"#utility.yul\":1106:1143   */\n      mstore\n        /* \"#utility.yul\":1096:1149   */\n      pop\n      pop\n      jump\t// out\n        /* \"#utility.yul\":1155:1519   */\n    tag_76:\n      0x00\n        /* \"#utility.yul\":1271:1310   */\n      tag_78\n        /* \"#utility.yul\":1304:1309   */\n      dup3\n        /* \"#utility.yul\":1271:1310   */\n      tag_79\n      jump\t// in\n    tag_78:\n        /* \"#utility.yul\":1326:1397   */\n      tag_80\n        /* \"#utility.yul\":1390:1396   */\n      dup2\n        /* \"#utility.yul\":1385:1388   */\n      dup6\n        /* \"#utility.yul\":1326:1397   */\n      tag_81\n      jump\t// in\n    tag_80:\n        /* \"#utility.yul\":1319:1397   */\n      swap4\n      pop\n        /* \"#utility.yul\":1406:1458   */\n      tag_82\n        /* \"#utility.yul\":1451:1457   */\n      dup2\n        /* \"#utility.yul\":1446:1449   */\n      dup6\n        /* \"#utility.yul\":1439:1443   */\n      0x20\n        /* \"#utility.yul\":1432:1437   */\n      dup7\n        /* \"#utility.yul\":1428:1444   */\n      add\n        /* \"#utility.yul\":1406:1458   */\n      tag_83\n      jump\t// in\n    tag_82:\n        /* \"#utility.yul\":1483:1512   */\n      tag_84\n        /* \"#utility.yul\":1505:1511   */\n      dup2\n        /* \"#utility.yul\":1483:1512   */\n      tag_85\n      jump\t// in\n    tag_84:\n        /* \"#utility.yul\":1478:1481   */\n      dup5\n        /* \"#utility.yul\":1474:1513   */\n      add\n        /* \"#utility.yul\":1467:1513   */\n      swap2\n      pop\n        /* \"#utility.yul\":1247:1519   */\n      pop\n      swap3\n      swap2\n      pop\n      pop\n      jump\t// out\n        /* \"#utility.yul\":1525:1643   */\n    tag_86:\n        /* \"#utility.yul\":1612:1636   */\n      tag_88\n        /* \"#utility.yul\":1630:1635   */\n      dup2\n        /* \"#utility.yul\":1612:1636   */\n      tag_89\n      jump\t// in\n    tag_88:\n        /* \"#utility.yul\":1607:1610   */\n      dup3\n        /* \"#utility.yul\":1600:1637   */\n      mstore\n        /* \"#utility.yul\":1590:1643   */\n      pop\n      pop\n      jump\t// out\n        /* \"#utility.yul\":1649:1871   */\n    tag_12:\n      0x00\n        /* \"#utility.yul\":1780:1782   */\n      0x20\n        /* \"#utility.yul\":1769:1778   */\n      dup3\n        /* \"#utility.yul\":1765:1783   */\n      add\n        /* \"#utility.yul\":1757:1783   */\n      swap1\n      pop\n        /* \"#utility.yul\":1793:1864   */\n      tag_91\n        /* \"#utility.yul\":1861:1862   */\n      0x00\n        /* \"#utility.yul\":1850:1859   */\n      dup4\n        /* \"#utility.yul\":1846:1863   */\n      add\n        /* \"#utility.yul\":1837:1843   */\n      dup5\n        /* \"#utility.yul\":1793:1864   */\n      tag_72\n      jump\t// in\n    tag_91:\n        /* \"#utility.yul\":1747:1871   */\n      swap3\n      swap2\n      pop\n      pop\n      jump\t// out\n        /* \"#utility.yul\":1877:2190   */\n    tag_30:\n      0x00\n        /* \"#utility.yul\":2028:2030   */\n      0x20\n        /* \"#utility.yul\":2017:2026   */\n      dup3\n        /* \"#utility.yul\":2013:2031   */\n      add\n        /* \"#utility.yul\":2005:2031   */\n      swap1\n      pop\n        /* \"#utility.yul\":2077:2086   */\n      dup2\n        /* \"#utility.yul\":2071:2075   */\n      dup2\n        /* \"#utility.yul\":2067:2087   */\n      sub\n        /* \"#utility.yul\":2063:2064   */\n      0x00\n        /* \"#utility.yul\":2052:2061   */\n      dup4\n        /* \"#utility.yul\":2048:2065   */\n      add\n        /* \"#utility.yul\":2041:2088   */\n      mstore\n        /* \"#utility.yul\":2105:2183   */\n      tag_93\n        /* \"#utility.yul\":2178:2182   */\n      dup2\n        /* \"#utility.yul\":2169:2175   */\n      dup5\n        /* \"#utility.yul\":2105:2183   */\n      tag_76\n      jump\t// in\n    tag_93:\n        /* \"#utility.yul\":2097:2183   */\n      swap1\n      pop\n        /* \"#utility.yul\":1995:2190   */\n      swap3\n      swap2\n      pop\n      pop\n      jump\t// out\n        /* \"#utility.yul\":2196:2418   */\n    tag_16:\n      0x00\n        /* \"#utility.yul\":2327:2329   */\n      0x20\n        /* \"#utility.yul\":2316:2325   */\n      dup3\n        /* \"#utility.yul\":2312:2330   */\n      add\n        /* \"#utility.yul\":2304:2330   */\n      swap1\n      pop\n        /* \"#utility.yul\":2340:2411   */\n      tag_95\n        /* \"#utility.yul\":2408:2409   */\n      0x00\n        /* \"#utility.yul\":2397:2406   */\n      dup4\n        /* \"#utility.yul\":2393:2410   */\n      add\n        /* \"#utility.yul\":2384:2390   */\n      dup5\n        /* \"#utility.yul\":2340:2411   */\n      tag_86\n      jump\t// in\n    tag_95:\n        /* \"#utility.yul\":2294:2418   */\n      swap3\n      swap2\n      pop\n      pop\n      jump\t// out\n        /* \"#utility.yul\":2424:2707   */\n    tag_60:\n      0x00\n        /* \"#utility.yul\":2490:2492   */\n      0x40\n        /* \"#utility.yul\":2484:2493   */\n      mload\n        /* \"#utility.yul\":2474:2493   */\n      swap1\n      pop\n        /* \"#utility.yul\":2532:2536   */\n      dup2\n        /* \"#utility.yul\":2524:2530   */\n      dup2\n        /* \"#utility.yul\":2520:2537   */\n      add\n        /* \"#utility.yul\":2639:2645   */\n      dup2\n        /* \"#utility.yul\":2627:2637   */\n      dup2\n        /* \"#utility.yul\":2624:2646   */\n      lt\n        /* \"#utility.yul\":2603:2621   */\n      0xffffffffffffffff\n        /* \"#utility.yul\":2591:2601   */\n      dup3\n        /* \"#utility.yul\":2588:2622   */\n      gt\n        /* \"#utility.yul\":2585:2647   */\n      or\n        /* \"#utility.yul\":2582:2584   */\n      iszero\n      tag_97\n      jumpi\n        /* \"#utility.yul\":2650:2668   */\n      tag_98\n      tag_99\n      jump\t// in\n    tag_98:\n        /* \"#utility.yul\":2582:2584   */\n    tag_97:\n        /* \"#utility.yul\":2690:2700   */\n      dup1\n        /* \"#utility.yul\":2686:2688   */\n      0x40\n        /* \"#utility.yul\":2679:2701   */\n      mstore\n        /* \"#utility.yul\":2464:2707   */\n      pop\n      swap2\n      swap1\n      pop\n      jump\t// out\n        /* \"#utility.yul\":2713:3045   */\n    tag_59:\n      0x00\n        /* \"#utility.yul\":2865:2883   */\n      0xffffffffffffffff\n        /* \"#utility.yul\":2857:2863   */\n      dup3\n        /* \"#utility.yul\":2854:2884   */\n      gt\n        /* \"#utility.yul\":2851:2853   */\n      iszero\n      tag_101\n      jumpi\n        /* \"#utility.yul\":2887:2905   */\n      tag_102\n      tag_99\n      jump\t// in\n    tag_102:\n        /* \"#utility.yul\":2851:2853   */\n    tag_101:\n        /* \"#utility.yul\":2972:2976   */\n      0x1f\n        /* \"#utility.yul\":2968:2977   */\n      not\n        /* \"#utility.yul\":2961:2965   */\n      0x1f\n        /* \"#utility.yul\":2953:2959   */\n      dup4\n        /* \"#utility.yul\":2949:2966   */\n      add\n        /* \"#utility.yul\":2945:2978   */\n      and\n        /* \"#utility.yul\":2937:2978   */\n      swap1\n      pop\n        /* \"#utility.yul\":3033:3037   */\n      0x20\n        /* \"#utility.yul\":3027:3031   */\n      dup2\n        /* \"#utility.yul\":3023:3038   */\n      add\n        /* \"#utility.yul\":3015:3038   */\n      swap1\n      pop\n        /* \"#utility.yul\":2780:3045   */\n      swap2\n      swap1\n      pop\n      jump\t// out\n        /* \"#utility.yul\":3051:3150   */\n    tag_79:\n      0x00\n        /* \"#utility.yul\":3137:3142   */\n      dup2\n        /* \"#utility.yul\":3131:3143   */\n      mload\n        /* \"#utility.yul\":3121:3143   */\n      swap1\n      pop\n        /* \"#utility.yul\":3110:3150   */\n      swap2\n      swap1\n      pop\n      jump\t// out\n        /* \"#utility.yul\":3156:3325   */\n    tag_81:\n      0x00\n        /* \"#utility.yul\":3274:3280   */\n      dup3\n        /* \"#utility.yul\":3269:3272   */\n      dup3\n        /* \"#utility.yul\":3262:3281   */\n      mstore\n        /* \"#utility.yul\":3314:3318   */\n      0x20\n        /* \"#utility.yul\":3309:3312   */\n      dup3\n        /* \"#utility.yul\":3305:3319   */\n      add\n        /* \"#utility.yul\":3290:3319   */\n      swap1\n      pop\n        /* \"#utility.yul\":3252:3325   */\n      swap3\n      swap2\n      pop\n      pop\n      jump\t// out\n        /* \"#utility.yul\":3331:3427   */\n    tag_75:\n      0x00\n        /* \"#utility.yul\":3397:3421   */\n      tag_106\n        /* \"#utility.yul\":3415:3420   */\n      dup3\n        /* \"#utility.yul\":3397:3421   */\n      tag_107\n      jump\t// in\n    tag_106:\n        /* \"#utility.yul\":3386:3421   */\n      swap1\n      pop\n        /* \"#utility.yul\":3376:3427   */\n      swap2\n      swap1\n      pop\n      jump\t// out\n        /* \"#utility.yul\":3433:3559   */\n    tag_107:\n      0x00\n        /* \"#utility.yul\":3510:3552   */\n      0xffffffffffffffffffffffffffffffffffffffff\n        /* \"#utility.yul\":3503:3508   */\n      dup3\n        /* \"#utility.yul\":3499:3553   */\n      and\n        /* \"#utility.yul\":3488:3553   */\n      swap1\n      pop\n        /* \"#utility.yul\":3478:3559   */\n      swap2\n      swap1\n      pop\n      jump\t// out\n        /* \"#utility.yul\":3565:3642   */\n    tag_89:\n      0x00\n        /* \"#utility.yul\":3631:3636   */\n      dup2\n        /* \"#utility.yul\":3620:3636   */\n      swap1\n      pop\n        /* \"#utility.yul\":3610:3642   */\n      swap2\n      swap1\n      pop\n      jump\t// out\n        /* \"#utility.yul\":3648:3802   */\n    tag_63:\n        /* \"#utility.yul\":3732:3738   */\n      dup3\n        /* \"#utility.yul\":3727:3730   */\n      dup2\n        /* \"#utility.yul\":3722:3725   */\n      dup4\n        /* \"#utility.yul\":3709:3739   */\n      calldatacopy\n        /* \"#utility.yul\":3794:3795   */\n      0x00\n        /* \"#utility.yul\":3785:3791   */\n      dup4\n        /* \"#utility.yul\":3780:3783   */\n      dup4\n        /* \"#utility.yul\":3776:3792   */\n      add\n        /* \"#utility.yul\":3769:3796   */\n      mstore\n        /* \"#utility.yul\":3699:3802   */\n      pop\n      pop\n      pop\n      jump\t// out\n        /* \"#utility.yul\":3808:4115   */\n    tag_83:\n        /* \"#utility.yul\":3876:3877   */\n      0x00\n        /* \"#utility.yul\":3886:3999   */\n    tag_112:\n        /* \"#utility.yul\":3900:3906   */\n      dup4\n        /* \"#utility.yul\":3897:3898   */\n      dup2\n        /* \"#utility.yul\":3894:3907   */\n      lt\n        /* \"#utility.yul\":3886:3999   */\n      iszero\n      tag_114\n      jumpi\n        /* \"#utility.yul\":3985:3986   */\n      dup1\n        /* \"#utility.yul\":3980:3983   */\n      dup3\n        /* \"#utility.yul\":3976:3987   */\n      add\n        /* \"#utility.yul\":3970:3988   */\n      mload\n        /* \"#utility.yul\":3966:3967   */\n      dup2\n        /* \"#utility.yul\":3961:3964   */\n      dup5\n        /* \"#utility.yul\":3957:3968   */\n      add\n        /* \"#utility.yul\":3950:3989   */\n      mstore\n        /* \"#utility.yul\":3922:3924   */\n      0x20\n        /* \"#utility.yul\":3919:3920   */\n      dup2\n        /* \"#utility.yul\":3915:3925   */\n      add\n        /* \"#utility.yul\":3910:3925   */\n      swap1\n      pop\n        /* \"#utility.yul\":3886:3999   */\n      jump(tag_112)\n    tag_114:\n        /* \"#utility.yul\":4017:4023   */\n      dup4\n        /* \"#utility.yul\":4014:4015   */\n      dup2\n        /* \"#utility.yul\":4011:4024   */\n      gt\n        /* \"#utility.yul\":4008:4010   */\n      iszero\n      tag_115\n      jumpi\n        /* \"#utility.yul\":4097:4098   */\n      0x00\n        /* \"#utility.yul\":4088:4094   */\n      dup5\n        /* \"#utility.yul\":4083:4086   */\n      dup5\n        /* \"#utility.yul\":4079:4095   */\n      add\n        /* \"#utility.yul\":4072:4099   */\n      mstore\n        /* \"#utility.yul\":4008:4010   */\n    tag_115:\n        /* \"#utility.yul\":3857:4115   */\n      pop\n      pop\n      pop\n      pop\n      jump\t// out\n        /* \"#utility.yul\":4121:4441   */\n    tag_39:\n      0x00\n        /* \"#utility.yul\":4202:4203   */\n      0x02\n        /* \"#utility.yul\":4196:4200   */\n      dup3\n        /* \"#utility.yul\":4192:4204   */\n      div\n        /* \"#utility.yul\":4182:4204   */\n      swap1\n      pop\n        /* \"#utility.yul\":4249:4250   */\n      0x01\n        /* \"#utility.yul\":4243:4247   */\n      dup3\n        /* \"#utility.yul\":4239:4251   */\n      and\n        /* \"#utility.yul\":4270:4288   */\n      dup1\n        /* \"#utility.yul\":4260:4262   */\n      tag_117\n      jumpi\n        /* \"#utility.yul\":4326:4330   */\n      0x7f\n        /* \"#utility.yul\":4318:4324   */\n      dup3\n        /* \"#utility.yul\":4314:4331   */\n      and\n        /* \"#utility.yul\":4304:4331   */\n      swap2\n      pop\n        /* \"#utility.yul\":4260:4262   */\n    tag_117:\n        /* \"#utility.yul\":4388:4390   */\n      0x20\n        /* \"#utility.yul\":4380:4386   */\n      dup3\n        /* \"#utility.yul\":4377:4391   */\n      lt\n        /* \"#utility.yul\":4357:4375   */\n      dup2\n        /* \"#utility.yul\":4354:4392   */\n      eq\n        /* \"#utility.yul\":4351:4353   */\n      iszero\n      tag_118\n      jumpi\n        /* \"#utility.yul\":4407:4425   */\n      tag_119\n      tag_120\n      jump\t// in\n    tag_119:\n        /* \"#utility.yul\":4351:4353   */\n    tag_118:\n        /* \"#utility.yul\":4172:4441   */\n      pop\n      swap2\n      swap1\n      pop\n      jump\t// out\n        /* \"#utility.yul\":4447:4680   */\n    tag_36:\n      0x00\n        /* \"#utility.yul\":4509:4533   */\n      tag_122\n        /* \"#utility.yul\":4527:4532   */\n      dup3\n        /* \"#utility.yul\":4509:4533   */\n      tag_89\n      jump\t// in\n    tag_122:\n        /* \"#utility.yul\":4500:4533   */\n      swap2\n      pop\n        /* \"#utility.yul\":4555:4621   */\n      0xffffffffffffffffffffffffffffffffffffffffffffffffffffffffffffffff\n        /* \"#utility.yul\":4548:4553   */\n      dup3\n        /* \"#utility.yul\":4545:4622   */\n      eq\n        /* \"#utility.yul\":4542:4544   */\n      iszero\n      tag_123\n      jumpi\n        /* \"#utility.yul\":4625:4643   */\n      tag_124\n      tag_125\n      jump\t// in\n    tag_124:\n        /* \"#utility.yul\":4542:4544   */\n    tag_123:\n        /* \"#utility.yul\":4672:4673   */\n      0x01\n        /* \"#utility.yul\":4665:4670   */\n      dup3\n        /* \"#utility.yul\":4661:4674   */\n      add\n        /* \"#utility.yul\":4654:4674   */\n      swap1\n      pop\n        /* \"#utility.yul\":4490:4680   */\n      swap2\n      swap1\n      pop\n      jump\t// out\n        /* \"#utility.yul\":4686:4866   */\n    tag_125:\n        /* \"#utility.yul\":4734:4811   */\n      0x4e487b7100000000000000000000000000000000000000000000000000000000\n        /* \"#utility.yul\":4731:4732   */\n      0x00\n        /* \"#utility.yul\":4724:4812   */\n      mstore\n        /* \"#utility.yul\":4831:4835   */\n      0x11\n        /* \"#utility.yul\":4828:4829   */\n      0x04\n        /* \"#utility.yul\":4821:4836   */\n      mstore\n        /* \"#utility.yul\":4855:4859   */\n      0x24\n        /* \"#utility.yul\":4852:4853   */\n      0x00\n        /* \"#utility.yul\":4845:4860   */\n      revert\n        /* \"#utility.yul\":4872:5052   */\n    tag_120:\n        /* \"#utility.yul\":4920:4997   */\n      0x4e487b7100000000000000000000000000000000000000000000000000000000\n        /* \"#utility.yul\":4917:4918   */\n      0x00\n        /* \"#utility.yul\":4910:4998   */\n      mstore\n        /* \"#utility.yul\":5017:5021   */\n      0x22\n        /* \"#utility.yul\":5014:5015   */\n      0x04\n        /* \"#utility.yul\":5007:5022   */\n      mstore\n        /* \"#utility.yul\":5041:5045   */\n      0x24\n        /* \"#utility.yul\":5038:5039   */\n      0x00\n        /* \"#utility.yul\":5031:5046   */\n      revert\n        /* \"#utility.yul\":5058:5238   */\n    tag_99:\n        /* \"#utility.yul\":5106:5183   */\n      0x4e487b7100000000000000000000000000000000000000000000000000000000\n        /* \"#utility.yul\":5103:5104   */\n      0x00\n        /* \"#utility.yul\":5096:5184   */\n      mstore\n        /* \"#utility.yul\":5203:5207   */\n      0x41\n        /* \"#utility.yul\":5200:5201   */\n      0x04\n        /* \"#utility.yul\":5193:5208   */\n      mstore\n        /* \"#utility.yul\":5227:5231   */\n      0x24\n        /* \"#utility.yul\":5224:5225   */\n      0x00\n        /* \"#utility.yul\":5217:5232   */\n      revert\n        /* \"#utility.yul\":5244:5346   */\n    tag_85:\n      0x00\n        /* \"#utility.yul\":5336:5338   */\n      0x1f\n        /* \"#utility.yul\":5332:5339   */\n      not\n        /* \"#utility.yul\":5327:5329   */\n      0x1f\n        /* \"#utility.yul\":5320:5325   */\n      dup4\n        /* \"#utility.yul\":5316:5330   */\n      add\n        /* \"#utility.yul\":5312:5340   */\n      and\n        /* \"#utility.yul\":5302:5340   */\n      swap1\n      pop\n        /* \"#utility.yul\":5292:5346   */\n      swap2\n      swap1\n      pop\n      jump\t// out\n\n    auxdata: 0xa26469706673582212206b1e0d63800299462af4decbc7df8411cb81451d953e497b6225307c73ee100464736f6c63430008000033\n}\n",
				"bytecode": {
					"linkReferences": {},
					"object": "608060405234801561001057600080fd5b5060405180606001604052806023815260200161081f602391396000908051906020019061003f92919061008e565b50600060018190555033600260006101000a81548173ffffffffffffffffffffffffffffffffffffffff021916908373ffffffffffffffffffffffffffffffffffffffff160217905550610192565b82805461009a90610131565b90600052602060002090601f0160209004810192826100bc5760008555610103565b82601f106100d557805160ff1916838001178555610103565b82800160010185558215610103579182015b828111156101025782518255916020019190600101906100e7565b5b5090506101109190610114565b5090565b5b8082111561012d576000816000905550600101610115565b5090565b6000600282049050600182168061014957607f821691505b6020821081141561015d5761015c610163565b5b50919050565b7f4e487b7100000000000000000000000000000000000000000000000000000000600052602260045260246000fd5b61067e806101a16000396000f3fe608060405234801561001057600080fd5b50600436106100625760003560e01c806352a07d181461006757806353d27cc21461008557806377d0c9f2146100a35780639e0ce0ea146100c1578063bf2f64d3146100dd578063e21f37ce146100fb575b600080fd5b61006f610119565b60405161007c91906103dc565b60405180910390f35b61008d61013f565b60405161009a9190610419565b60405180910390f35b6100ab610145565b6040516100b89190610419565b60405180910390f35b6100db60048036038101906100d69190610344565b61014f565b005b6100e5610181565b6040516100f291906103dc565b60405180910390f35b6101036101ab565b60405161011091906103f7565b60405180910390f35b600260009054906101000a900473ffffffffffffffffffffffffffffffffffffffff1681565b60015481565b6000600154905090565b8060009080519060200190610165929190610239565b506001600081548092919061017990610561565b919050555050565b6000600260009054906101000a900473ffffffffffffffffffffffffffffffffffffffff16905090565b600080546101b89061052f565b80601f01602080910402602001604051908101604052809291908181526020018280546101e49061052f565b80156102315780601f1061020657610100808354040283529160200191610231565b820191906000526020600020905b81548152906001019060200180831161021457829003601f168201915b505050505081565b8280546102459061052f565b90600052602060002090601f01602090048101928261026757600085556102ae565b82601f1061028057805160ff19168380011785556102ae565b828001600101855582156102ae579182015b828111156102ad578251825591602001919060010190610292565b5b5090506102bb91906102bf565b5090565b5b808211156102d85760008160009055506001016102c0565b5090565b60006102ef6102ea84610465565b610434565b90508281526020810184848401111561030757600080fd5b6103128482856104ed565b509392505050565b600082601f83011261032b57600080fd5b813561033b8482602086016102dc565b91505092915050565b60006020828403121561035657600080fd5b600082013567ffffffffffffffff81111561037057600080fd5b61037c8482850161031a565b91505092915050565b61038e816104b1565b82525050565b600061039f82610495565b6103a981856104a0565b93506103b98185602086016104fc565b6103c281610637565b840191505092915050565b6103d6816104e3565b82525050565b60006020820190506103f16000830184610385565b92915050565b600060208201905081810360008301526104118184610394565b905092915050565b600060208201905061042e60008301846103cd565b92915050565b6000604051905081810181811067ffffffffffffffff8211171561045b5761045a610608565b5b8060405250919050565b600067ffffffffffffffff8211156104805761047f610608565b5b601f19601f8301169050602081019050919050565b600081519050919050565b600082825260208201905092915050565b60006104bc826104c3565b9050919050565b600073ffffffffffffffffffffffffffffffffffffffff82169050919050565b6000819050919050565b82818337600083830152505050565b60005b8381101561051a5780820151818401526020810190506104ff565b83811115610529576000848401525b50505050565b6000600282049050600182168061054757607f821691505b6020821081141561055b5761055a6105d9565b5b50919050565b600061056c826104e3565b91507fffffffffffffffffffffffffffffffffffffffffffffffffffffffffffffffff82141561059f5761059e6105aa565b5b600182019050919050565b7f4e487b7100000000000000000000000000000000000000000000000000000000600052601160045260246000fd5b7f4e487b7100000000000000000000000000000000000000000000000000000000600052602260045260246000fd5b7f4e487b7100000000000000000000000000000000000000000000000000000000600052604160045260246000fd5b6000601f19601f830116905091905056fea26469706673582212206b1e0d63800299462af4decbc7df8411cb81451d953e497b6225307c73ee100464736f6c63430008000033486f6c6120426c6f636b636861696e21204d69207072696d657220636f6e747261746f",
					"opcodes": "PUSH1 0x80 PUSH1 0x40 MSTORE CALLVALUE DUP1 ISZERO PUSH2 0x10 JUMPI PUSH1 0x0 DUP1 REVERT JUMPDEST POP PUSH1 0x40 MLOAD DUP1 PUSH1 0x60 ADD PUSH1 0x40 MSTORE DUP1 PUSH1 0x23 DUP2 MSTORE PUSH1 0x20 ADD PUSH2 0x81F PUSH1 0x23 SWAP2 CODECOPY PUSH1 0x0 SWAP1 DUP1 MLOAD SWAP1 PUSH1 0x20 ADD SWAP1 PUSH2 0x3F SWAP3 SWAP2 SWAP1 PUSH2 0x8E JUMP JUMPDEST POP PUSH1 0x0 PUSH1 0x1 DUP2 SWAP1 SSTORE POP CALLER PUSH1 0x2 PUSH1 0x0 PUSH2 0x100 EXP DUP2 SLOAD DUP2 PUSH20 0xFFFFFFFFFFFFFFFFFFFFFFFFFFFFFFFFFFFFFFFF MUL NOT AND SWAP1 DUP4 PUSH20 0xFFFFFFFFFFFFFFFFFFFFFFFFFFFFFFFFFFFFFFFF AND MUL OR SWAP1 SSTORE POP PUSH2 0x192 JUMP JUMPDEST DUP3 DUP1 SLOAD PUSH2 0x9A SWAP1 PUSH2 0x131 JUMP JUMPDEST SWAP1 PUSH1 0x0 MSTORE PUSH1 0x20 PUSH1 0x0 KECCAK256 SWAP1 PUSH1 0x1F ADD PUSH1 0x20 SWAP1 DIV DUP2 ADD SWAP3 DUP3 PUSH2 0xBC JUMPI PUSH1 0x0 DUP6 SSTORE PUSH2 0x103 JUMP JUMPDEST DUP3 PUSH1 0x1F LT PUSH2 0xD5 JUMPI DUP1 MLOAD PUSH1 0xFF NOT AND DUP4 DUP1 ADD OR DUP6 SSTORE PUSH2 0x103 JUMP JUMPDEST DUP3 DUP1 ADD PUSH1 0x1 ADD DUP6 SSTORE DUP3 ISZERO PUSH2 0x103 JUMPI SWAP2 DUP3 ADD JUMPDEST DUP3 DUP2 GT ISZERO PUSH2 0x102 JUMPI DUP3 MLOAD DUP3 SSTORE SWAP2 PUSH1 0x20 ADD SWAP2 SWAP1 PUSH1 0x1 ADD SWAP1 PUSH2 0xE7 JUMP JUMPDEST JUMPDEST POP SWAP1 POP PUSH2 0x110 SWAP2 SWAP1 PUSH2 0x114 JUMP JUMPDEST POP SWAP1 JUMP JUMPDEST JUMPDEST DUP1 DUP3 GT ISZERO PUSH2 0x12D JUMPI PUSH1 0x0 DUP2 PUSH1 0x0 SWAP1 SSTORE POP PUSH1 0x1 ADD PUSH2 0x115 JUMP JUMPDEST POP SWAP1 JUMP JUMPDEST PUSH1 0x0 PUSH1 0x2 DUP3 DIV SWAP1 POP PUSH1 0x1 DUP3 AND DUP1 PUSH2 0x149 JUMPI PUSH1 0x7F DUP3 AND SWAP2 POP JUMPDEST PUSH1 0x20 DUP3 LT DUP2 EQ ISZERO PUSH2 0x15D JUMPI PUSH2 0x15C PUSH2 0x163 JUMP JUMPDEST JUMPDEST POP SWAP2 SWAP1 POP JUMP JUMPDEST PUSH32 0x4E487B7100000000000000000000000000000000000000000000000000000000 PUSH1 0x0 MSTORE PUSH1 0x22 PUSH1 0x4 MSTORE PUSH1 0x24 PUSH1 0x0 REVERT JUMPDEST PUSH2 0x67E DUP1 PUSH2 0x1A1 PUSH1 0x0 CODECOPY PUSH1 0x0 RETURN INVALID PUSH1 0x80 PUSH1 0x40 MSTORE CALLVALUE DUP1 ISZERO PUSH2 0x10 JUMPI PUSH1 0x0 DUP1 REVERT JUMPDEST POP PUSH1 0x4 CALLDATASIZE LT PUSH2 0x62 JUMPI PUSH1 0x0 CALLDATALOAD PUSH1 0xE0 SHR DUP1 PUSH4 0x52A07D18 EQ PUSH2 0x67 JUMPI DUP1 PUSH4 0x53D27CC2 EQ PUSH2 0x85 JUMPI DUP1 PUSH4 0x77D0C9F2 EQ PUSH2 0xA3 JUMPI DUP1 PUSH4 0x9E0CE0EA EQ PUSH2 0xC1 JUMPI DUP1 PUSH4 0xBF2F64D3 EQ PUSH2 0xDD JUMPI DUP1 PUSH4 0xE21F37CE EQ PUSH2 0xFB JUMPI JUMPDEST PUSH1 0x0 DUP1 REVERT JUMPDEST PUSH2 0x6F PUSH2 0x119 JUMP JUMPDEST PUSH1 0x40 MLOAD PUSH2 0x7C SWAP2 SWAP1 PUSH2 0x3DC JUMP JUMPDEST PUSH1 0x40 MLOAD DUP1 SWAP2 SUB SWAP1 RETURN JUMPDEST PUSH2 0x8D PUSH2 0x13F JUMP JUMPDEST PUSH1 0x40 MLOAD PUSH2 0x9A SWAP2 SWAP1 PUSH2 0x419 JUMP JUMPDEST PUSH1 0x40 MLOAD DUP1 SWAP2 SUB SWAP1 RETURN JUMPDEST PUSH2 0xAB PUSH2 0x145 JUMP JUMPDEST PUSH1 0x40 MLOAD PUSH2 0xB8 SWAP2 SWAP1 PUSH2 0x419 JUMP JUMPDEST PUSH1 0x40 MLOAD DUP1 SWAP2 SUB SWAP1 RETURN JUMPDEST PUSH2 0xDB PUSH1 0x4 DUP1 CALLDATASIZE SUB DUP2 ADD SWAP1 PUSH2 0xD6 SWAP2 SWAP1 PUSH2 0x344 JUMP JUMPDEST PUSH2 0x14F JUMP JUMPDEST STOP JUMPDEST PUSH2 0xE5 PUSH2 0x181 JUMP JUMPDEST PUSH1 0x40 MLOAD PUSH2 0xF2 SWAP2 SWAP1 PUSH2 0x3DC JUMP JUMPDEST PUSH1 0x40 MLOAD DUP1 SWAP2 SUB SWAP1 RETURN JUMPDEST PUSH2 0x103 PUSH2 0x1AB JUMP JUMPDEST PUSH1 0x40 MLOAD PUSH2 0x110 SWAP2 SWAP1 PUSH2 0x3F7 JUMP JUMPDEST PUSH1 0x40 MLOAD DUP1 SWAP2 SUB SWAP1 RETURN JUMPDEST PUSH1 0x2 PUSH1 0x0 SWAP1 SLOAD SWAP1 PUSH2 0x100 EXP SWAP1 DIV PUSH20 0xFFFFFFFFFFFFFFFFFFFFFFFFFFFFFFFFFFFFFFFF AND DUP2 JUMP JUMPDEST PUSH1 0x1 SLOAD DUP2 JUMP JUMPDEST PUSH1 0x0 PUSH1 0x1 SLOAD SWAP1 POP SWAP1 JUMP JUMPDEST DUP1 PUSH1 0x0 SWAP1 DUP1 MLOAD SWAP1 PUSH1 0x20 ADD SWAP1 PUSH2 0x165 SWAP3 SWAP2 SWAP1 PUSH2 0x239 JUMP JUMPDEST POP PUSH1 0x1 PUSH1 0x0 DUP2 SLOAD DUP1 SWAP3 SWAP2 SWAP1 PUSH2 0x179 SWAP1 PUSH2 0x561 JUMP JUMPDEST SWAP2 SWAP1 POP SSTORE POP POP JUMP JUMPDEST PUSH1 0x0 PUSH1 0x2 PUSH1 0x0 SWAP1 SLOAD SWAP1 PUSH2 0x100 EXP SWAP1 DIV PUSH20 0xFFFFFFFFFFFFFFFFFFFFFFFFFFFFFFFFFFFFFFFF AND SWAP1 POP SWAP1 JUMP JUMPDEST PUSH1 0x0 DUP1 SLOAD PUSH2 0x1B8 SWAP1 PUSH2 0x52F JUMP JUMPDEST DUP1 PUSH1 0x1F ADD PUSH1 0x20 DUP1 SWAP2 DIV MUL PUSH1 0x20 ADD PUSH1 0x40 MLOAD SWAP1 DUP2 ADD PUSH1 0x40 MSTORE DUP1 SWAP3 SWAP2 SWAP1 DUP2 DUP2 MSTORE PUSH1 0x20 ADD DUP3 DUP1 SLOAD PUSH2 0x1E4 SWAP1 PUSH2 0x52F JUMP JUMPDEST DUP1 ISZERO PUSH2 0x231 JUMPI DUP1 PUSH1 0x1F LT PUSH2 0x206 JUMPI PUSH2 0x100 DUP1 DUP4 SLOAD DIV MUL DUP4 MSTORE SWAP2 PUSH1 0x20 ADD SWAP2 PUSH2 0x231 JUMP JUMPDEST DUP3 ADD SWAP2 SWAP1 PUSH1 0x0 MSTORE PUSH1 0x20 PUSH1 0x0 KECCAK256 SWAP1 JUMPDEST DUP2 SLOAD DUP2 MSTORE SWAP1 PUSH1 0x1 ADD SWAP1 PUSH1 0x20 ADD DUP1 DUP4 GT PUSH2 0x214 JUMPI DUP3 SWAP1 SUB PUSH1 0x1F AND DUP3 ADD SWAP2 JUMPDEST POP POP POP POP POP DUP2 JUMP JUMPDEST DUP3 DUP1 SLOAD PUSH2 0x245 SWAP1 PUSH2 0x52F JUMP JUMPDEST SWAP1 PUSH1 0x0 MSTORE PUSH1 0x20 PUSH1 0x0 KECCAK256 SWAP1 PUSH1 0x1F ADD PUSH1 0x20 SWAP1 DIV DUP2 ADD SWAP3 DUP3 PUSH2 0x267 JUMPI PUSH1 0x0 DUP6 SSTORE PUSH2 0x2AE JUMP JUMPDEST DUP3 PUSH1 0x1F LT PUSH2 0x280 JUMPI DUP1 MLOAD PUSH1 0xFF NOT AND DUP4 DUP1 ADD OR DUP6 SSTORE PUSH2 0x2AE JUMP JUMPDEST DUP3 DUP1 ADD PUSH1 0x1 ADD DUP6 SSTORE DUP3 ISZERO PUSH2 0x2AE JUMPI SWAP2 DUP3 ADD JUMPDEST DUP3 DUP2 GT ISZERO PUSH2 0x2AD JUMPI DUP3 MLOAD DUP3 SSTORE SWAP2 PUSH1 0x20 ADD SWAP2 SWAP1 PUSH1 0x1 ADD SWAP1 PUSH2 0x292 JUMP JUMPDEST JUMPDEST POP SWAP1 POP PUSH2 0x2BB SWAP2 SWAP1 PUSH2 0x2BF JUMP JUMPDEST POP SWAP1 JUMP JUMPDEST JUMPDEST DUP1 DUP3 GT ISZERO PUSH2 0x2D8 JUMPI PUSH1 0x0 DUP2 PUSH1 0x0 SWAP1 SSTORE POP PUSH1 0x1 ADD PUSH2 0x2C0 JUMP JUMPDEST POP SWAP1 JUMP JUMPDEST PUSH1 0x0 PUSH2 0x2EF PUSH2 0x2EA DUP5 PUSH2 0x465 JUMP JUMPDEST PUSH2 0x434 JUMP JUMPDEST SWAP1 POP DUP3 DUP2 MSTORE PUSH1 0x20 DUP2 ADD DUP5 DUP5 DUP5 ADD GT ISZERO PUSH2 0x307 JUMPI PUSH1 0x0 DUP1 REVERT JUMPDEST PUSH2 0x312 DUP5 DUP3 DUP6 PUSH2 0x4ED JUMP JUMPDEST POP SWAP4 SWAP3 POP POP POP JUMP JUMPDEST PUSH1 0x0 DUP3 PUSH1 0x1F DUP4 ADD SLT PUSH2 0x32B JUMPI PUSH1 0x0 DUP1 REVERT JUMPDEST DUP2 CALLDATALOAD PUSH2 0x33B DUP5 DUP3 PUSH1 0x20 DUP7 ADD PUSH2 0x2DC JUMP JUMPDEST SWAP2 POP POP SWAP3 SWAP2 POP POP JUMP JUMPDEST PUSH1 0x0 PUSH1 0x20 DUP3 DUP5 SUB SLT ISZERO PUSH2 0x356 JUMPI PUSH1 0x0 DUP1 REVERT JUMPDEST PUSH1 0x0 DUP3 ADD CALLDATALOAD PUSH8 0xFFFFFFFFFFFFFFFF DUP2 GT ISZERO PUSH2 0x370 JUMPI PUSH1 0x0 DUP1 REVERT JUMPDEST PUSH2 0x37C DUP5 DUP3 DUP6 ADD PUSH2 0x31A JUMP JUMPDEST SWAP2 POP POP SWAP3 SWAP2 POP POP JUMP JUMPDEST PUSH2 0x38E DUP2 PUSH2 0x4B1 JUMP JUMPDEST DUP3 MSTORE POP POP JUMP JUMPDEST PUSH1 0x0 PUSH2 0x39F DUP3 PUSH2 0x495 JUMP JUMPDEST PUSH2 0x3A9 DUP2 DUP6 PUSH2 0x4A0 JUMP JUMPDEST SWAP4 POP PUSH2 0x3B9 DUP2 DUP6 PUSH1 0x20 DUP7 ADD PUSH2 0x4FC JUMP JUMPDEST PUSH2 0x3C2 DUP2 PUSH2 0x637 JUMP JUMPDEST DUP5 ADD SWAP2 POP POP SWAP3 SWAP2 POP POP JUMP JUMPDEST PUSH2 0x3D6 DUP2 PUSH2 0x4E3 JUMP JUMPDEST DUP3 MSTORE POP POP JUMP JUMPDEST PUSH1 0x0 PUSH1 0x20 DUP3 ADD SWAP1 POP PUSH2 0x3F1 PUSH1 0x0 DUP4 ADD DUP5 PUSH2 0x385 JUMP JUMPDEST SWAP3 SWAP2 POP POP JUMP JUMPDEST PUSH1 0x0 PUSH1 0x20 DUP3 ADD SWAP1 POP DUP2 DUP2 SUB PUSH1 0x0 DUP4 ADD MSTORE PUSH2 0x411 DUP2 DUP5 PUSH2 0x394 JUMP JUMPDEST SWAP1 POP SWAP3 SWAP2 POP POP JUMP JUMPDEST PUSH1 0x0 PUSH1 0x20 DUP3 ADD SWAP1 POP PUSH2 0x42E PUSH1 0x0 DUP4 ADD DUP5 PUSH2 0x3CD JUMP JUMPDEST SWAP3 SWAP2 POP POP JUMP JUMPDEST PUSH1 0x0 PUSH1 0x40 MLOAD SWAP1 POP DUP2 DUP2 ADD DUP2 DUP2 LT PUSH8 0xFFFFFFFFFFFFFFFF DUP3 GT OR ISZERO PUSH2 0x45B JUMPI PUSH2 0x45A PUSH2 0x608 JUMP JUMPDEST JUMPDEST DUP1 PUSH1 0x40 MSTORE POP SWAP2 SWAP1 POP JUMP JUMPDEST PUSH1 0x0 PUSH8 0xFFFFFFFFFFFFFFFF DUP3 GT ISZERO PUSH2 0x480 JUMPI PUSH2 0x47F PUSH2 0x608 JUMP JUMPDEST JUMPDEST PUSH1 0x1F NOT PUSH1 0x1F DUP4 ADD AND SWAP1 POP PUSH1 0x20 DUP2 ADD SWAP1 POP SWAP2 SWAP1 POP JUMP JUMPDEST PUSH1 0x0 DUP2 MLOAD SWAP1 POP SWAP2 SWAP1 POP JUMP JUMPDEST PUSH1 0x0 DUP3 DUP3 MSTORE PUSH1 0x20 DUP3 ADD SWAP1 POP SWAP3 SWAP2 POP POP JUMP JUMPDEST PUSH1 0x0 PUSH2 0x4BC DUP3 PUSH2 0x4C3 JUMP JUMPDEST SWAP1 POP SWAP2 SWAP1 POP JUMP JUMPDEST PUSH1 0x0 PUSH20 0xFFFFFFFFFFFFFFFFFFFFFFFFFFFFFFFFFFFFFFFF DUP3 AND SWAP1 POP SWAP2 SWAP1 POP JUMP JUMPDEST PUSH1 0x0 DUP2 SWAP1 POP SWAP2 SWAP1 POP JUMP JUMPDEST DUP3 DUP2 DUP4 CALLDATACOPY PUSH1 0x0 DUP4 DUP4 ADD MSTORE POP POP POP JUMP JUMPDEST PUSH1 0x0 JUMPDEST DUP4 DUP2 LT ISZERO PUSH2 0x51A JUMPI DUP1 DUP3 ADD MLOAD DUP2 DUP5 ADD MSTORE PUSH1 0x20 DUP2 ADD SWAP1 POP PUSH2 0x4FF JUMP JUMPDEST DUP4 DUP2 GT ISZERO PUSH2 0x529 JUMPI PUSH1 0x0 DUP5 DUP5 ADD MSTORE JUMPDEST POP POP POP POP JUMP JUMPDEST PUSH1 0x0 PUSH1 0x2 DUP3 DIV SWAP1 POP PUSH1 0x1 DUP3 AND DUP1 PUSH2 0x547 JUMPI PUSH1 0x7F DUP3 AND SWAP2 POP JUMPDEST PUSH1 0x20 DUP3 LT DUP2 EQ ISZERO PUSH2 0x55B JUMPI PUSH2 0x55A PUSH2 0x5D9 JUMP JUMPDEST JUMPDEST POP SWAP2 SWAP1 POP JUMP JUMPDEST PUSH1 0x0 PUSH2 0x56C DUP3 PUSH2 0x4E3 JUMP JUMPDEST SWAP2 POP PUSH32 0xFFFFFFFFFFFFFFFFFFFFFFFFFFFFFFFFFFFFFFFFFFFFFFFFFFFFFFFFFFFFFFFF DUP3 EQ ISZERO PUSH2 0x59F JUMPI PUSH2 0x59E PUSH2 0x5AA JUMP JUMPDEST JUMPDEST PUSH1 0x1 DUP3 ADD SWAP1 POP SWAP2 SWAP1 POP JUMP JUMPDEST PUSH32 0x4E487B7100000000000000000000000000000000000000000000000000000000 PUSH1 0x0 MSTORE PUSH1 0x11 PUSH1 0x4 MSTORE PUSH1 0x24 PUSH1 0x0 REVERT JUMPDEST PUSH32 0x4E487B7100000000000000000000000000000000000000000000000000000000 PUSH1 0x0 MSTORE PUSH1 0x22 PUSH1 0x4 MSTORE PUSH1 0x24 PUSH1 0x0 REVERT JUMPDEST PUSH32 0x4E487B7100000000000000000000000000000000000000000000000000000000 PUSH1 0x0 MSTORE PUSH1 0x41 PUSH1 0x4 MSTORE PUSH1 0x24 PUSH1 0x0 REVERT JUMPDEST PUSH1 0x0 PUSH1 0x1F NOT PUSH1 0x1F DUP4 ADD AND SWAP1 POP SWAP2 SWAP1 POP JUMP INVALID LOG2 PUSH5 0x6970667358 0x22 SLT KECCAK256 PUSH12 0x1E0D63800299462AF4DECBC7 0xDF DUP5 GT 0xCB DUP2 GASLIMIT SAR SWAP6 RETURNDATACOPY 0x49 PUSH28 0x6225307C73EE100464736F6C63430008000033486F6C6120426C6F63 PUSH12 0x636861696E21204D69207072 PUSH10 0x6D657220636F6E747261 PUSH21 0x6F0000000000000000000000000000000000000000 "
				},
				"gasEstimates": {
					"creation": {
						"codeDepositCost": "332400",
						"executionCost": "infinite",
						"totalCost": "infinite"
					},
					"external": {
						"cambiarMensaje(string)": "infinite",
						"contador()": "1129",
						"dueno()": "1192",
						"message()": "infinite",
						"obtenerContador()": "1159",
						"obtenerDueno()": "1288"
					}
				},
				"methodIdentifiers": {
					"cambiarMensaje(string)": "9e0ce0ea",
					"contador()": "53d27cc2",
					"dueno()": "52a07d18",
					"message()": "e21f37ce",
					"obtenerContador()": "77d0c9f2",
					"obtenerDueno()": "bf2f64d3"
				}
			},
			"storageLayout": {
				"storage": [
					{
						"astId": 3,
						"contract": "HolaMundo.sol:HolaMundo",
						"label": "message",
						"offset": 0,
						"slot": "0",
						"type": "t_string_storage"
					},
					{
						"astId": 5,
						"contract": "HolaMundo.sol:HolaMundo",
						"label": "contador",
						"offset": 0,
						"slot": "1",
						"type": "t_uint256"
					},
					{
						"astId": 7,
						"contract": "HolaMundo.sol:HolaMundo",
						"label": "dueno",
						"offset": 0,
						"slot": "2",
						"type": "t_address"
					}
				],
				"types": {
					"t_address": {
						"encoding": "inplace",
						"label": "address",
						"numberOfBytes": "20"
					},
					"t_string_storage": {
						"encoding": "bytes",
						"label": "string",
						"numberOfBytes": "32"
					},
					"t_uint256": {
						"encoding": "inplace",
						"label": "uint256",
						"numberOfBytes": "32"
					}
				}
			},
			"userdoc": {
				"kind": "user",
				"methods": {},
				"version": 1
			}
		}
	}
}