{
	"HolaMundo1.sol": {
		"HolaMundo": {
			"abi": [
				{
					"inputs": [],
					"stateMutability": "nonpayable",
					"type": "constructor"
				},
				{
					"inputs": [
						{
							"internalType": "string",
							"name": "_newMessage",
							"type": "string"
						}
					],
					"name": "cambiarMensaje",
					"outputs": [],
					"stateMutability": "nonpayable",
					"type": "function"
				},
				{
					"inputs": [],
					"name": "contador",
					"outputs": [
						{
							"internalType": "uint256",
							"name": "",
							"type": "uint256"
						}
					],
					"stateMutability": "view",
					"type": "function"
				},
				{
					"inputs": [],
					"name": "dueno",
					"outputs": [
						{
							"internalType": "address",
							"name": "",
							"type": "address"
						}
					],
					"stateMutability": "view",
					"type": "function"
				},
				{
					"inputs": [],
					"name": "getMessage",
					"outputs": [
						{
							"internalType": "string",
							"name": "",
							"type": "string"
						}
					],
					"stateMutability": "view",
					"type": "function"
				},
				{
					"inputs": [],
					"name": "message",
					"outputs": [
						{
							"internalType": "string",
							"name": "",
							"type": "string"
						}
					],
					"stateMutability": "view",
					"type": "function"
				},
				{
					"inputs": [],
					"name": "obtenerContador",
					"outputs": [
						{
							"internalType": "uint256",
							"name": "",
							"type": "uint256"
						}
					],
					"stateMutability": "view",
					"type": "function"
				},
				{
					"inputs": [],
					"name": "obtenerDueno",
					"outputs": [
						{
							"internalType": "address",
							"name": "",
							"type": "address"
						}
					],
					"stateMutability": "view",
					"type": "function"
				}
			],
			"devdoc": {
				"kind": "dev",
				"methods": {},
				"version": 1
			},
			"evm": {
				"assembly": "    /* \"HolaMundo1.sol\":60:1192  contract HolaMundo {\r... */\n  mstore(0x40, 0x80)\n    /* \"HolaMundo1.sol\":392:552  constructor(){\r... */\n  callvalue\n  dup1\n  iszero\n  tag_1\n  jumpi\n  0x00\n  dup1\n  revert\ntag_1:\n  pop\n    /* \"HolaMundo1.sol\":416:463  message = \"Hola Blockchain! Mi primer contrato\" */\n  mload(0x40)\n  dup1\n  0x60\n  add\n  0x40\n  mstore\n  dup1\n  0x23\n  dup2\n  mstore\n  0x20\n  add\n  data_9a96f7227115a9be9157eed2db6c2aa75a637a9936263c37772241c2fcd2dcc2\n  0x23\n  swap2\n  codecopy\n    /* \"HolaMundo1.sol\":416:423  message */\n  0x00\n    /* \"HolaMundo1.sol\":416:463  message = \"Hola Blockchain! Mi primer contrato\" */\n  swap1\n  dup1\n  mload\n  swap1\n  0x20\n  add\n  swap1\n  tag_4\n  swap3\n  swap2\n  swap1\n  tag_5\n  jump\t// in\ntag_4:\n  pop\n    /* \"HolaMundo1.sol\":485:486  0 */\n  0x00\n    /* \"HolaMundo1.sol\":474:482  contador */\n  0x01\n    /* \"HolaMundo1.sol\":474:486  contador = 0 */\n  dup2\n  swap1\n  sstore\n  pop\n    /* \"HolaMundo1.sol\":505:515  msg.sender */\n  caller\n    /* \"HolaMundo1.sol\":497:502  dueno */\n  0x02\n  0x00\n    /* \"HolaMundo1.sol\":497:515  dueno = msg.sender */\n  0x0100\n  exp\n  dup2\n  sload\n  dup2\n  0xffffffffffffffffffffffffffffffffffffffff\n  mul\n  not\n  and\n  swap1\n  dup4\n  0xffffffffffffffffffffffffffffffffffffffff\n  and\n  mul\n  or\n  swap1\n  sstore\n  pop\n    /* \"HolaMundo1.sol\":60:1192  contract HolaMundo {\r... */\n  jump(tag_6)\ntag_5:\n  dup3\n  dup1\n  sload\n  tag_7\n  swap1\n  tag_8\n  jump\t// in\ntag_7:\n  swap1\n  0x00\n  mstore\n  keccak256(0x00, 0x20)\n  swap1\n  0x1f\n  add\n  0x20\n  swap1\n  div\n  dup2\n  add\n  swap3\n  dup3\n  tag_10\n  jumpi\n  0x00\n  dup6\n  sstore\n  jump(tag_9)\ntag_10:\n  dup3\n  0x1f\n  lt\n  tag_11\n  jumpi\n  dup1\n  mload\n  not(0xff)\n  and\n  dup4\n  dup1\n  add\n  or\n  dup6\n  sstore\n  jump(tag_9)\ntag_11:\n  dup3\n  dup1\n  add\n  0x01\n  add\n  dup6\n  sstore\n  dup3\n  iszero\n  tag_9\n  jumpi\n  swap2\n  dup3\n  add\ntag_12:\n  dup3\n  dup2\n  gt\n  iszero\n  tag_13\n  jumpi\n  dup3\n  mload\n  dup3\n  sstore\n  swap2\n  0x20\n  add\n  swap2\n  swap1\n  0x01\n  add\n  swap1\n  jump(tag_12)\ntag_13:\ntag_9:\n  pop\n  swap1\n  pop\n  tag_14\n  swap2\n  swap1\n  tag_15\n  jump\t// in\ntag_14:\n  pop\n  swap1\n  jump\t// out\ntag_15:\ntag_16:\n  dup1\n  dup3\n  gt\n  iszero\n  tag_17\n  jumpi\n  0x00\n  dup2\n  0x00\n  swap1\n  sstore\n  pop\n  0x01\n  add\n  jump(tag_16)\ntag_17:\n  pop\n  swap1\n  jump\t// out\n    /* \"#utility.yul\":7:327   */\ntag_8:\n  0x00\n    /* \"#utility.yul\":88:89   */\n  0x02\n    /* \"#utility.yul\":82:86   */\n  dup3\n    /* \"#utility.yul\":78:90   */\n  div\n    /* \"#utility.yul\":68:90   */\n  swap1\n  pop\n    /* \"#utility.yul\":135:136   */\n  0x01\n    /* \"#utility.yul\":129:133   */\n  dup3\n    /* \"#utility.yul\":125:137   */\n  and\n    /* \"#utility.yul\":156:174   */\n  dup1\n    /* \"#utility.yul\":146:148   */\n  tag_20\n  jumpi\n    /* \"#utility.yul\":212:216   */\n  0x7f\n    /* \"#utility.yul\":204:210   */\n  dup3\n    /* \"#utility.yul\":200:217   */\n  and\n    /* \"#utility.yul\":190:217   */\n  swap2\n  pop\n    /* \"#utility.yul\":146:148   */\ntag_20:\n    /* \"#utility.yul\":274:276   */\n  0x20\n    /* \"#utility.yul\":266:272   */\n  dup3\n    /* \"#utility.yul\":263:277   */\n  lt\n    /* \"#utility.yul\":243:261   */\n  dup2\n    /* \"#utility.yul\":240:278   */\n  eq\n    /* \"#utility.yul\":237:239   */\n  iszero\n  tag_21\n  jumpi\n    /* \"#utility.yul\":293:311   */\n  tag_22\n  tag_23\n  jump\t// in\ntag_22:\n    /* \"#utility.yul\":237:239   */\ntag_21:\n    /* \"#utility.yul\":58:327   */\n  pop\n  swap2\n  swap1\n  pop\n  jump\t// out\n    /* \"#utility.yul\":333:513   */\ntag_23:\n    /* \"#utility.yul\":381:458   */\n  0x4e487b7100000000000000000000000000000000000000000000000000000000\n    /* \"#utility.yul\":378:379   */\n  0x00\n    /* \"#utility.yul\":371:459   */\n  mstore\n    /* \"#utility.yul\":478:482   */\n  0x22\n    /* \"#utility.yul\":475:476   */\n  0x04\n    /* \"#utility.yul\":468:483   */\n  mstore\n    /* \"#utility.yul\":502:506   */\n  0x24\n    /* \"#utility.yul\":499:500   */\n  0x00\n    /* \"#utility.yul\":492:507   */\n  revert\n    /* \"HolaMundo1.sol\":60:1192  contract HolaMundo {\r... */\ntag_6:\n  dataSize(sub_0)\n  dup1\n  dataOffset(sub_0)\n  0x00\n  codecopy\n  0x00\n  return\nstop\ndata_9a96f7227115a9be9157eed2db6c2aa75a637a9936263c37772241c2fcd2dcc2 486f6c6120426c6f636b636861696e21204d69207072696d657220636f6e747261746f\n\nsub_0: assembly {\n        /* \"HolaMundo1.sol\":60:1192  contract HolaMundo {\r... */\n      mstore(0x40, 0x80)\n      callvalue\n      dup1\n      iszero\n      tag_1\n      jumpi\n      0x00\n      dup1\n      revert\n    tag_1:\n      pop\n      jumpi(tag_2, lt(calldatasize, 0x04))\n      shr(0xe0, calldataload(0x00))\n      dup1\n      0x9e0ce0ea\n      gt\n      tag_10\n      jumpi\n      dup1\n      0x9e0ce0ea\n      eq\n      tag_6\n      jumpi\n      dup1\n      0xbf2f64d3\n      eq\n      tag_7\n      jumpi\n      dup1\n      0xce6d41de\n      eq\n      tag_8\n      jumpi\n      dup1\n      0xe21f37ce\n      eq\n      tag_9\n      jumpi\n      jump(tag_2)\n    tag_10:\n      dup1\n      0x52a07d18\n      eq\n      tag_3\n      jumpi\n      dup1\n      0x53d27cc2\n      eq\n      tag_4\n      jumpi\n      dup1\n      0x77d0c9f2\n      eq\n      tag_5\n      jumpi\n    tag_2:\n      0x00\n      dup1\n      revert\n        /* \"HolaMundo1.sol\":307:327  address public dueno */\n    tag_3:\n      tag_11\n      tag_12\n      jump\t// in\n    tag_11:\n      mload(0x40)\n      tag_13\n      swap2\n      swap1\n      tag_14\n      jump\t// in\n    tag_13:\n      mload(0x40)\n      dup1\n      swap2\n      sub\n      swap1\n      return\n        /* \"HolaMundo1.sol\":233:256  uint256 public contador */\n    tag_4:\n      tag_15\n      tag_16\n      jump\t// in\n    tag_15:\n      mload(0x40)\n      tag_17\n      swap2\n      swap1\n      tag_18\n      jump\t// in\n    tag_17:\n      mload(0x40)\n      dup1\n      swap2\n      sub\n      swap1\n      return\n        /* \"HolaMundo1.sol\":950:1041  function obtenerContador() public view returns (uint256) {\r... */\n    tag_5:\n      tag_19\n      tag_20\n      jump\t// in\n    tag_19:\n      mload(0x40)\n      tag_21\n      swap2\n      swap1\n      tag_18\n      jump\t// in\n    tag_21:\n      mload(0x40)\n      dup1\n      swap2\n      sub\n      swap1\n      return\n        /* \"HolaMundo1.sol\":613:760  function cambiarMensaje(string memory _newMessage) public {\r... */\n    tag_6:\n      tag_22\n      0x04\n      dup1\n      calldatasize\n      sub\n      dup2\n      add\n      swap1\n      tag_23\n      swap2\n      swap1\n      tag_24\n      jump\t// in\n    tag_23:\n      tag_25\n      jump\t// in\n    tag_22:\n      stop\n        /* \"HolaMundo1.sol\":1102:1187  function obtenerDueno() public view returns (address) {\r... */\n    tag_7:\n      tag_26\n      tag_27\n      jump\t// in\n    tag_26:\n      mload(0x40)\n      tag_28\n      swap2\n      swap1\n      tag_14\n      jump\t// in\n    tag_28:\n      mload(0x40)\n      dup1\n      swap2\n      sub\n      swap1\n      return\n        /* \"HolaMundo1.sol\":768:901  function getMessage() public view returns (string memory) {\r... */\n    tag_8:\n      tag_29\n      tag_30\n      jump\t// in\n    tag_29:\n      mload(0x40)\n      tag_31\n      swap2\n      swap1\n      tag_32\n      jump\t// in\n    tag_31:\n      mload(0x40)\n      dup1\n      swap2\n      sub\n      swap1\n      return\n        /* \"HolaMundo1.sol\":144:165  string public message */\n    tag_9:\n      tag_33\n      tag_34\n      jump\t// in\n    tag_33:\n      mload(0x40)\n      tag_35\n      swap2\n      swap1\n      tag_32\n      jump\t// in\n    tag_35:\n      mload(0x40)\n      dup1\n      swap2\n      sub\n      swap1\n      return\n        /* \"HolaMundo1.sol\":307:327  address public dueno */\n    tag_12:\n      0x02\n      0x00\n      swap1\n      sload\n      swap1\n      0x0100\n      exp\n      swap1\n      div\n      0xffffffffffffffffffffffffffffffffffffffff\n      and\n      dup2\n      jump\t// out\n        /* \"HolaMundo1.sol\":233:256  uint256 public contador */\n    tag_16:\n      sload(0x01)\n      dup2\n      jump\t// out\n        /* \"HolaMundo1.sol\":950:1041  function obtenerContador() public view returns (uint256) {\r... */\n    tag_20:\n        /* \"HolaMundo1.sol\":998:1005  uint256 */\n      0x00\n        /* \"HolaMundo1.sol\":1025:1033  contador */\n      sload(0x01)\n        /* \"HolaMundo1.sol\":1018:1033  return contador */\n      swap1\n      pop\n        /* \"HolaMundo1.sol\":950:1041  function obtenerContador() public view returns (uint256) {\r... */\n      swap1\n      jump\t// out\n        /* \"HolaMundo1.sol\":613:760  function cambiarMensaje(string memory _newMessage) public {\r... */\n    tag_25:\n        /* \"HolaMundo1.sol\":692:703  _newMessage */\n      dup1\n        /* \"HolaMundo1.sol\":682:689  message */\n      0x00\n        /* \"HolaMundo1.sol\":682:703  message = _newMessage */\n      swap1\n      dup1\n      mload\n      swap1\n      0x20\n      add\n      swap1\n      tag_38\n      swap3\n      swap2\n      swap1\n      tag_39\n      jump\t// in\n    tag_38:\n      pop\n        /* \"HolaMundo1.sol\":714:722  contador */\n      0x01\n      0x00\n        /* \"HolaMundo1.sol\":714:724  contador++ */\n      dup2\n      sload\n      dup1\n      swap3\n      swap2\n      swap1\n      tag_40\n      swap1\n      tag_41\n      jump\t// in\n    tag_40:\n      swap2\n      swap1\n      pop\n      sstore\n      pop\n        /* \"HolaMundo1.sol\":613:760  function cambiarMensaje(string memory _newMessage) public {\r... */\n      pop\n      jump\t// out\n        /* \"HolaMundo1.sol\":1102:1187  function obtenerDueno() public view returns (address) {\r... */\n    tag_27:\n        /* \"HolaMundo1.sol\":1147:1154  address */\n      0x00\n        /* \"HolaMundo1.sol\":1174:1179  dueno */\n      0x02\n      0x00\n      swap1\n      sload\n      swap1\n      0x0100\n      exp\n      swap1\n      div\n      0xffffffffffffffffffffffffffffffffffffffff\n      and\n        /* \"HolaMundo1.sol\":1167:1179  return dueno */\n      swap1\n      pop\n        /* \"HolaMundo1.sol\":1102:1187  function obtenerDueno() public view returns (address) {\r... */\n      swap1\n      jump\t// out\n        /* \"HolaMundo1.sol\":768:901  function getMessage() public view returns (string memory) {\r... */\n    tag_30:\n        /* \"HolaMundo1.sol\":811:824  string memory */\n      0x60\n        /* \"HolaMundo1.sol\":868:875  message */\n      0x00\n        /* \"HolaMundo1.sol\":851:891  abi.encodePacked(message, \" - Solidity\") */\n      add(0x20, mload(0x40))\n      tag_44\n      swap2\n      swap1\n      tag_45\n      jump\t// in\n    tag_44:\n      mload(0x40)\n      0x20\n      dup2\n      dup4\n      sub\n      sub\n      dup2\n      mstore\n      swap1\n      0x40\n      mstore\n        /* \"HolaMundo1.sol\":837:892  return string(abi.encodePacked(message, \" - Solidity\")) */\n      swap1\n      pop\n        /* \"HolaMundo1.sol\":768:901  function getMessage() public view returns (string memory) {\r... */\n      swap1\n      jump\t// out\n        /* \"HolaMundo1.sol\":144:165  string public message */\n    tag_34:\n      0x00\n      dup1\n      sload\n      tag_46\n      swap1\n      tag_47\n      jump\t// in\n    tag_46:\n      dup1\n      0x1f\n      add\n      0x20\n      dup1\n      swap2\n      div\n      mul\n      0x20\n      add\n      mload(0x40)\n      swap1\n      dup2\n      add\n      0x40\n      mstore\n      dup1\n      swap3\n      swap2\n      swap1\n      dup2\n      dup2\n      mstore\n      0x20\n      add\n      dup3\n      dup1\n      sload\n      tag_48\n      swap1\n      tag_47\n      jump\t// in\n    tag_48:\n      dup1\n      iszero\n      tag_49\n      jumpi\n      dup1\n      0x1f\n      lt\n      tag_50\n      jumpi\n      0x0100\n      dup1\n      dup4\n      sload\n      div\n      mul\n      dup4\n      mstore\n      swap2\n      0x20\n      add\n      swap2\n      jump(tag_49)\n    tag_50:\n      dup3\n      add\n      swap2\n      swap1\n      0x00\n      mstore\n      keccak256(0x00, 0x20)\n      swap1\n    tag_51:\n      dup2\n      sload\n      dup2\n      mstore\n      swap1\n      0x01\n      add\n      swap1\n      0x20\n      add\n      dup1\n      dup4\n      gt\n      tag_51\n      jumpi\n      dup3\n      swap1\n      sub\n      0x1f\n      and\n      dup3\n      add\n      swap2\n    tag_49:\n      pop\n      pop\n      pop\n      pop\n      pop\n      dup2\n      jump\t// out\n    tag_39:\n      dup3\n      dup1\n      sload\n      tag_52\n      swap1\n      tag_47\n      jump\t// in\n    tag_52:\n      swap1\n      0x00\n      mstore\n      keccak256(0x00, 0x20)\n      swap1\n      0x1f\n      add\n      0x20\n      swap1\n      div\n      dup2\n      add\n      swap3\n      dup3\n      tag_54\n      jumpi\n      0x00\n      dup6\n      sstore\n      jump(tag_53)\n    tag_54:\n      dup3\n      0x1f\n      lt\n      tag_55\n      jumpi\n      dup1\n      mload\n      not(0xff)\n      and\n      dup4\n      dup1\n      add\n      or\n      dup6\n      sstore\n      jump(tag_53)\n    tag_55:\n      dup3\n      dup1\n      add\n      0x01\n      add\n      dup6\n      sstore\n      dup3\n      iszero\n      tag_53\n      jumpi\n      swap2\n      dup3\n      add\n    tag_56:\n      dup3\n      dup2\n      gt\n      iszero\n      tag_57\n      jumpi\n      dup3\n      mload\n      dup3\n      sstore\n      swap2\n      0x20\n      add\n      swap2\n      swap1\n      0x01\n      add\n      swap1\n      jump(tag_56)\n    tag_57:\n    tag_53:\n      pop\n      swap1\n      pop\n      tag_58\n      swap2\n      swap1\n      tag_59\n      jump\t// in\n    tag_58:\n      pop\n      swap1\n      jump\t// out\n    tag_59:\n    tag_60:\n      dup1\n      dup3\n      gt\n      iszero\n      tag_61\n      jumpi\n      0x00\n      dup2\n      0x00\n      swap1\n      sstore\n      pop\n      0x01\n      add\n      jump(tag_60)\n    tag_61:\n      pop\n      swap1\n      jump\t// out\n        /* \"#utility.yul\":7:351   */\n    tag_63:\n      0x00\n        /* \"#utility.yul\":110:175   */\n      tag_65\n        /* \"#utility.yul\":125:174   */\n      tag_66\n        /* \"#utility.yul\":167:173   */\n      dup5\n        /* \"#utility.yul\":125:174   */\n      tag_67\n      jump\t// in\n    tag_66:\n        /* \"#utility.yul\":110:175   */\n      tag_68\n      jump\t// in\n    tag_65:\n        /* \"#utility.yul\":101:175   */\n      swap1\n      pop\n        /* \"#utility.yul\":198:204   */\n      dup3\n        /* \"#utility.yul\":191:196   */\n      dup2\n        /* \"#utility.yul\":184:205   */\n      mstore\n        /* \"#utility.yul\":236:240   */\n      0x20\n        /* \"#utility.yul\":229:234   */\n      dup2\n        /* \"#utility.yul\":225:241   */\n      add\n        /* \"#utility.yul\":274:277   */\n      dup5\n        /* \"#utility.yul\":265:271   */\n      dup5\n        /* \"#utility.yul\":260:263   */\n      dup5\n        /* \"#utility.yul\":256:272   */\n      add\n        /* \"#utility.yul\":253:278   */\n      gt\n        /* \"#utility.yul\":250:252   */\n      iszero\n      tag_69\n      jumpi\n        /* \"#utility.yul\":291:292   */\n      0x00\n        /* \"#utility.yul\":288:289   */\n      dup1\n        /* \"#utility.yul\":281:293   */\n      revert\n        /* \"#utility.yul\":250:252   */\n    tag_69:\n        /* \"#utility.yul\":304:345   */\n      tag_70\n        /* \"#utility.yul\":338:344   */\n      dup5\n        /* \"#utility.yul\":333:336   */\n      dup3\n        /* \"#utility.yul\":328:331   */\n      dup6\n        /* \"#utility.yul\":304:345   */\n      tag_71\n      jump\t// in\n    tag_70:\n        /* \"#utility.yul\":91:351   */\n      pop\n      swap4\n      swap3\n      pop\n      pop\n      pop\n      jump\t// out\n        /* \"#utility.yul\":371:644   */\n    tag_72:\n      0x00\n        /* \"#utility.yul\":476:479   */\n      dup3\n        /* \"#utility.yul\":469:473   */\n      0x1f\n        /* \"#utility.yul\":461:467   */\n      dup4\n        /* \"#utility.yul\":457:474   */\n      add\n        /* \"#utility.yul\":453:480   */\n      slt\n        /* \"#utility.yul\":443:445   */\n      tag_74\n      jumpi\n        /* \"#utility.yul\":494:495   */\n      0x00\n        /* \"#utility.yul\":491:492   */\n      dup1\n        /* \"#utility.yul\":484:496   */\n      revert\n        /* \"#utility.yul\":443:445   */\n    tag_74:\n        /* \"#utility.yul\":534:540   */\n      dup2\n        /* \"#utility.yul\":521:541   */\n      calldataload\n        /* \"#utility.yul\":559:638   */\n      tag_75\n        /* \"#utility.yul\":634:637   */\n      dup5\n        /* \"#utility.yul\":626:632   */\n      dup3\n        /* \"#utility.yul\":619:623   */\n      0x20\n        /* \"#utility.yul\":611:617   */\n      dup7\n        /* \"#utility.yul\":607:624   */\n      add\n        /* \"#utility.yul\":559:638   */\n      tag_63\n      jump\t// in\n    tag_75:\n        /* \"#utility.yul\":550:638   */\n      swap2\n      pop\n        /* \"#utility.yul\":433:644   */\n      pop\n      swap3\n      swap2\n      pop\n      pop\n      jump\t// out\n        /* \"#utility.yul\":650:1025   */\n    tag_24:\n      0x00\n        /* \"#utility.yul\":768:770   */\n      0x20\n        /* \"#utility.yul\":756:765   */\n      dup3\n        /* \"#utility.yul\":747:754   */\n      dup5\n        /* \"#utility.yul\":743:766   */\n      sub\n        /* \"#utility.yul\":739:771   */\n      slt\n        /* \"#utility.yul\":736:738   */\n      iszero\n      tag_77\n      jumpi\n        /* \"#utility.yul\":784:785   */\n      0x00\n        /* \"#utility.yul\":781:782   */\n      dup1\n        /* \"#utility.yul\":774:786   */\n      revert\n        /* \"#utility.yul\":736:738   */\n    tag_77:\n        /* \"#utility.yul\":855:856   */\n      0x00\n        /* \"#utility.yul\":844:853   */\n      dup3\n        /* \"#utility.yul\":840:857   */\n      add\n        /* \"#utility.yul\":827:858   */\n      calldataload\n        /* \"#utility.yul\":885:903   */\n      0xffffffffffffffff\n        /* \"#utility.yul\":877:883   */\n      dup2\n        /* \"#utility.yul\":874:904   */\n      gt\n        /* \"#utility.yul\":871:873   */\n      iszero\n      tag_78\n      jumpi\n        /* \"#utility.yul\":917:918   */\n      0x00\n        /* \"#utility.yul\":914:915   */\n      dup1\n        /* \"#utility.yul\":907:919   */\n      revert\n        /* \"#utility.yul\":871:873   */\n    tag_78:\n        /* \"#utility.yul\":945:1008   */\n      tag_79\n        /* \"#utility.yul\":1000:1007   */\n      dup5\n        /* \"#utility.yul\":991:997   */\n      dup3\n        /* \"#utility.yul\":980:989   */\n      dup6\n        /* \"#utility.yul\":976:998   */\n      add\n        /* \"#utility.yul\":945:1008   */\n      tag_72\n      jump\t// in\n    tag_79:\n        /* \"#utility.yul\":935:1008   */\n      swap2\n      pop\n        /* \"#utility.yul\":798:1018   */\n      pop\n        /* \"#utility.yul\":726:1025   */\n      swap3\n      swap2\n      pop\n      pop\n      jump\t// out\n        /* \"#utility.yul\":1031:1149   */\n    tag_80:\n        /* \"#utility.yul\":1118:1142   */\n      tag_82\n        /* \"#utility.yul\":1136:1141   */\n      dup2\n        /* \"#utility.yul\":1118:1142   */\n      tag_83\n      jump\t// in\n    tag_82:\n        /* \"#utility.yul\":1113:1116   */\n      dup3\n        /* \"#utility.yul\":1106:1143   */\n      mstore\n        /* \"#utility.yul\":1096:1149   */\n      pop\n      pop\n      jump\t// out\n        /* \"#utility.yul\":1155:1519   */\n    tag_84:\n      0x00\n        /* \"#utility.yul\":1271:1310   */\n      tag_86\n        /* \"#utility.yul\":1304:1309   */\n      dup3\n        /* \"#utility.yul\":1271:1310   */\n      tag_87\n      jump\t// in\n    tag_86:\n        /* \"#utility.yul\":1326:1397   */\n      tag_88\n        /* \"#utility.yul\":1390:1396   */\n      dup2\n        /* \"#utility.yul\":1385:1388   */\n      dup6\n        /* \"#utility.yul\":1326:1397   */\n      tag_89\n      jump\t// in\n    tag_88:\n        /* \"#utility.yul\":1319:1397   */\n      swap4\n      pop\n        /* \"#utility.yul\":1406:1458   */\n      tag_90\n        /* \"#utility.yul\":1451:1457   */\n      dup2\n        /* \"#utility.yul\":1446:1449   */\n      dup6\n        /* \"#utility.yul\":1439:1443   */\n      0x20\n        /* \"#utility.yul\":1432:1437   */\n      dup7\n        /* \"#utility.yul\":1428:1444   */\n      add\n        /* \"#utility.yul\":1406:1458   */\n      tag_91\n      jump\t// in\n    tag_90:\n        /* \"#utility.yul\":1483:1512   */\n      tag_92\n        /* \"#utility.yul\":1505:1511   */\n      dup2\n        /* \"#utility.yul\":1483:1512   */\n      tag_93\n      jump\t// in\n    tag_92:\n        /* \"#utility.yul\":1478:1481   */\n      dup5\n        /* \"#utility.yul\":1474:1513   */\n      add\n        /* \"#utility.yul\":1467:1513   */\n      swap2\n      pop\n        /* \"#utility.yul\":1247:1519   */\n      pop\n      swap3\n      swap2\n      pop\n      pop\n      jump\t// out\n        /* \"#utility.yul\":1549:2394   */\n    tag_94:\n      0x00\n        /* \"#utility.yul\":1689:1694   */\n      dup2\n        /* \"#utility.yul\":1683:1695   */\n      sload\n        /* \"#utility.yul\":1718:1754   */\n      tag_96\n        /* \"#utility.yul\":1744:1753   */\n      dup2\n        /* \"#utility.yul\":1718:1754   */\n      tag_47\n      jump\t// in\n    tag_96:\n        /* \"#utility.yul\":1770:1859   */\n      tag_97\n        /* \"#utility.yul\":1852:1858   */\n      dup2\n        /* \"#utility.yul\":1847:1850   */\n      dup7\n        /* \"#utility.yul\":1770:1859   */\n      tag_98\n      jump\t// in\n    tag_97:\n        /* \"#utility.yul\":1763:1859   */\n      swap5\n      pop\n        /* \"#utility.yul\":1890:1891   */\n      0x01\n        /* \"#utility.yul\":1879:1888   */\n      dup3\n        /* \"#utility.yul\":1875:1892   */\n      and\n        /* \"#utility.yul\":1906:1907   */\n      0x00\n        /* \"#utility.yul\":1901:2038   */\n      dup2\n      eq\n      tag_100\n      jumpi\n        /* \"#utility.yul\":2052:2053   */\n      0x01\n        /* \"#utility.yul\":2047:2388   */\n      dup2\n      eq\n      tag_101\n      jumpi\n        /* \"#utility.yul\":1868:2388   */\n      jump(tag_99)\n        /* \"#utility.yul\":1901:2038   */\n    tag_100:\n        /* \"#utility.yul\":1985:1989   */\n      0xff\n        /* \"#utility.yul\":1981:1990   */\n      not\n        /* \"#utility.yul\":1970:1979   */\n      dup4\n        /* \"#utility.yul\":1966:1991   */\n      and\n        /* \"#utility.yul\":1961:1964   */\n      dup7\n        /* \"#utility.yul\":1954:1992   */\n      mstore\n        /* \"#utility.yul\":2021:2027   */\n      dup2\n        /* \"#utility.yul\":2016:2019   */\n      dup7\n        /* \"#utility.yul\":2012:2028   */\n      add\n        /* \"#utility.yul\":2005:2028   */\n      swap4\n      pop\n        /* \"#utility.yul\":1901:2038   */\n      jump(tag_99)\n        /* \"#utility.yul\":2047:2388   */\n    tag_101:\n        /* \"#utility.yul\":2114:2152   */\n      tag_102\n        /* \"#utility.yul\":2146:2151   */\n      dup6\n        /* \"#utility.yul\":2114:2152   */\n      tag_103\n      jump\t// in\n    tag_102:\n        /* \"#utility.yul\":2174:2175   */\n      0x00\n        /* \"#utility.yul\":2188:2342   */\n    tag_104:\n        /* \"#utility.yul\":2202:2208   */\n      dup4\n        /* \"#utility.yul\":2199:2200   */\n      dup2\n        /* \"#utility.yul\":2196:2209   */\n      lt\n        /* \"#utility.yul\":2188:2342   */\n      iszero\n      tag_106\n      jumpi\n        /* \"#utility.yul\":2276:2283   */\n      dup2\n        /* \"#utility.yul\":2270:2284   */\n      sload\n        /* \"#utility.yul\":2266:2267   */\n      dup2\n        /* \"#utility.yul\":2261:2264   */\n      dup10\n        /* \"#utility.yul\":2257:2268   */\n      add\n        /* \"#utility.yul\":2250:2285   */\n      mstore\n        /* \"#utility.yul\":2326:2327   */\n      0x01\n        /* \"#utility.yul\":2317:2324   */\n      dup3\n        /* \"#utility.yul\":2313:2328   */\n      add\n        /* \"#utility.yul\":2302:2328   */\n      swap2\n      pop\n        /* \"#utility.yul\":2224:2228   */\n      0x20\n        /* \"#utility.yul\":2221:2222   */\n      dup2\n        /* \"#utility.yul\":2217:2229   */\n      add\n        /* \"#utility.yul\":2212:2229   */\n      swap1\n      pop\n        /* \"#utility.yul\":2188:2342   */\n      jump(tag_104)\n    tag_106:\n        /* \"#utility.yul\":2371:2377   */\n      dup4\n        /* \"#utility.yul\":2366:2369   */\n      dup9\n        /* \"#utility.yul\":2362:2378   */\n      add\n        /* \"#utility.yul\":2355:2378   */\n      swap6\n      pop\n        /* \"#utility.yul\":2054:2388   */\n      pop\n      pop\n        /* \"#utility.yul\":1868:2388   */\n    tag_99:\n      pop\n        /* \"#utility.yul\":1656:2394   */\n      pop\n      pop\n      swap3\n      swap2\n      pop\n      pop\n      jump\t// out\n        /* \"#utility.yul\":2400:2745   */\n    tag_107:\n      0x00\n        /* \"#utility.yul\":2581:2666   */\n      tag_109\n        /* \"#utility.yul\":2663:2665   */\n      0x0b\n        /* \"#utility.yul\":2658:2661   */\n      dup4\n        /* \"#utility.yul\":2581:2666   */\n      tag_98\n      jump\t// in\n    tag_109:\n        /* \"#utility.yul\":2574:2666   */\n      swap2\n      pop\n        /* \"#utility.yul\":2696:2709   */\n      0x202d20536f6c6964697479000000000000000000000000000000000000000000\n        /* \"#utility.yul\":2692:2693   */\n      0x00\n        /* \"#utility.yul\":2687:2690   */\n      dup4\n        /* \"#utility.yul\":2683:2694   */\n      add\n        /* \"#utility.yul\":2676:2710   */\n      mstore\n        /* \"#utility.yul\":2736:2738   */\n      0x0b\n        /* \"#utility.yul\":2731:2734   */\n      dup3\n        /* \"#utility.yul\":2727:2739   */\n      add\n        /* \"#utility.yul\":2720:2739   */\n      swap1\n      pop\n        /* \"#utility.yul\":2564:2745   */\n      swap2\n      swap1\n      pop\n      jump\t// out\n        /* \"#utility.yul\":2751:2869   */\n    tag_110:\n        /* \"#utility.yul\":2838:2862   */\n      tag_112\n        /* \"#utility.yul\":2856:2861   */\n      dup2\n        /* \"#utility.yul\":2838:2862   */\n      tag_113\n      jump\t// in\n    tag_112:\n        /* \"#utility.yul\":2833:2836   */\n      dup3\n        /* \"#utility.yul\":2826:2863   */\n      mstore\n        /* \"#utility.yul\":2816:2869   */\n      pop\n      pop\n      jump\t// out\n        /* \"#utility.yul\":2875:3410   */\n    tag_45:\n      0x00\n        /* \"#utility.yul\":3127:3219   */\n      tag_115\n        /* \"#utility.yul\":3215:3218   */\n      dup3\n        /* \"#utility.yul\":3206:3212   */\n      dup5\n        /* \"#utility.yul\":3127:3219   */\n      tag_94\n      jump\t// in\n    tag_115:\n        /* \"#utility.yul\":3120:3219   */\n      swap2\n      pop\n        /* \"#utility.yul\":3236:3384   */\n      tag_116\n        /* \"#utility.yul\":3380:3383   */\n      dup3\n        /* \"#utility.yul\":3236:3384   */\n      tag_107\n      jump\t// in\n    tag_116:\n        /* \"#utility.yul\":3229:3384   */\n      swap2\n      pop\n        /* \"#utility.yul\":3401:3404   */\n      dup2\n        /* \"#utility.yul\":3394:3404   */\n      swap1\n      pop\n        /* \"#utility.yul\":3109:3410   */\n      swap3\n      swap2\n      pop\n      pop\n      jump\t// out\n        /* \"#utility.yul\":3416:3638   */\n    tag_14:\n      0x00\n        /* \"#utility.yul\":3547:3549   */\n      0x20\n        /* \"#utility.yul\":3536:3545   */\n      dup3\n        /* \"#utility.yul\":3532:3550   */\n      add\n        /* \"#utility.yul\":3524:3550   */\n      swap1\n      pop\n        /* \"#utility.yul\":3560:3631   */\n      tag_118\n        /* \"#utility.yul\":3628:3629   */\n      0x00\n        /* \"#utility.yul\":3617:3626   */\n      dup4\n        /* \"#utility.yul\":3613:3630   */\n      add\n        /* \"#utility.yul\":3604:3610   */\n      dup5\n        /* \"#utility.yul\":3560:3631   */\n      tag_80\n      jump\t// in\n    tag_118:\n        /* \"#utility.yul\":3514:3638   */\n      swap3\n      swap2\n      pop\n      pop\n      jump\t// out\n        /* \"#utility.yul\":3644:3957   */\n    tag_32:\n      0x00\n        /* \"#utility.yul\":3795:3797   */\n      0x20\n        /* \"#utility.yul\":3784:3793   */\n      dup3\n        /* \"#utility.yul\":3780:3798   */\n      add\n        /* \"#utility.yul\":3772:3798   */\n      swap1\n      pop\n        /* \"#utility.yul\":3844:3853   */\n      dup2\n        /* \"#utility.yul\":3838:3842   */\n      dup2\n        /* \"#utility.yul\":3834:3854   */\n      sub\n        /* \"#utility.yul\":3830:3831   */\n      0x00\n        /* \"#utility.yul\":3819:3828   */\n      dup4\n        /* \"#utility.yul\":3815:3832   */\n      add\n        /* \"#utility.yul\":3808:3855   */\n      mstore\n        /* \"#utility.yul\":3872:3950   */\n      tag_120\n        /* \"#utility.yul\":3945:3949   */\n      dup2\n        /* \"#utility.yul\":3936:3942   */\n      dup5\n        /* \"#utility.yul\":3872:3950   */\n      tag_84\n      jump\t// in\n    tag_120:\n        /* \"#utility.yul\":3864:3950   */\n      swap1\n      pop\n        /* \"#utility.yul\":3762:3957   */\n      swap3\n      swap2\n      pop\n      pop\n      jump\t// out\n        /* \"#utility.yul\":3963:4185   */\n    tag_18:\n      0x00\n        /* \"#utility.yul\":4094:4096   */\n      0x20\n        /* \"#utility.yul\":4083:4092   */\n      dup3\n        /* \"#utility.yul\":4079:4097   */\n      add\n        /* \"#utility.yul\":4071:4097   */\n      swap1\n      pop\n        /* \"#utility.yul\":4107:4178   */\n      tag_122\n        /* \"#utility.yul\":4175:4176   */\n      0x00\n        /* \"#utility.yul\":4164:4173   */\n      dup4\n        /* \"#utility.yul\":4160:4177   */\n      add\n        /* \"#utility.yul\":4151:4157   */\n      dup5\n        /* \"#utility.yul\":4107:4178   */\n      tag_110\n      jump\t// in\n    tag_122:\n        /* \"#utility.yul\":4061:4185   */\n      swap3\n      swap2\n      pop\n      pop\n      jump\t// out\n        /* \"#utility.yul\":4191:4474   */\n    tag_68:\n      0x00\n        /* \"#utility.yul\":4257:4259   */\n      0x40\n        /* \"#utility.yul\":4251:4260   */\n      mload\n        /* \"#utility.yul\":4241:4260   */\n      swap1\n      pop\n        /* \"#utility.yul\":4299:4303   */\n      dup2\n        /* \"#utility.yul\":4291:4297   */\n      dup2\n        /* \"#utility.yul\":4287:4304   */\n      add\n        /* \"#utility.yul\":4406:4412   */\n      dup2\n        /* \"#utility.yul\":4394:4404   */\n      dup2\n        /* \"#utility.yul\":4391:4413   */\n      lt\n        /* \"#utility.yul\":4370:4388   */\n      0xffffffffffffffff\n        /* \"#utility.yul\":4358:4368   */\n      dup3\n        /* \"#utility.yul\":4355:4389   */\n      gt\n        /* \"#utility.yul\":4352:4414   */\n      or\n        /* \"#utility.yul\":4349:4351   */\n      iszero\n      tag_124\n      jumpi\n        /* \"#utility.yul\":4417:4435   */\n      tag_125\n      tag_126\n      jump\t// in\n    tag_125:\n        /* \"#utility.yul\":4349:4351   */\n    tag_124:\n        /* \"#utility.yul\":4457:4467   */\n      dup1\n        /* \"#utility.yul\":4453:4455   */\n      0x40\n        /* \"#utility.yul\":4446:4468   */\n      mstore\n        /* \"#utility.yul\":4231:4474   */\n      pop\n      swap2\n      swap1\n      pop\n      jump\t// out\n        /* \"#utility.yul\":4480:4812   */\n    tag_67:\n      0x00\n        /* \"#utility.yul\":4632:4650   */\n      0xffffffffffffffff\n        /* \"#utility.yul\":4624:4630   */\n      dup3\n        /* \"#utility.yul\":4621:4651   */\n      gt\n        /* \"#utility.yul\":4618:4620   */\n      iszero\n      tag_128\n      jumpi\n        /* \"#utility.yul\":4654:4672   */\n      tag_129\n      tag_126\n      jump\t// in\n    tag_129:\n        /* \"#utility.yul\":4618:4620   */\n    tag_128:\n        /* \"#utility.yul\":4739:4743   */\n      0x1f\n        /* \"#utility.yul\":4735:4744   */\n      not\n        /* \"#utility.yul\":4728:4732   */\n      0x1f\n        /* \"#utility.yul\":4720:4726   */\n      dup4\n        /* \"#utility.yul\":4716:4733   */\n      add\n        /* \"#utility.yul\":4712:4745   */\n      and\n        /* \"#utility.yul\":4704:4745   */\n      swap1\n      pop\n        /* \"#utility.yul\":4800:4804   */\n      0x20\n        /* \"#utility.yul\":4794:4798   */\n      dup2\n        /* \"#utility.yul\":4790:4805   */\n      add\n        /* \"#utility.yul\":4782:4805   */\n      swap1\n      pop\n        /* \"#utility.yul\":4547:4812   */\n      swap2\n      swap1\n      pop\n      jump\t// out\n        /* \"#utility.yul\":4818:4959   */\n    tag_103:\n      0x00\n        /* \"#utility.yul\":4890:4893   */\n      dup2\n        /* \"#utility.yul\":4882:4893   */\n      swap1\n      pop\n        /* \"#utility.yul\":4913:4916   */\n      dup2\n        /* \"#utility.yul\":4910:4911   */\n      0x00\n        /* \"#utility.yul\":4903:4917   */\n      mstore\n        /* \"#utility.yul\":4947:4951   */\n      0x20\n        /* \"#utility.yul\":4944:4945   */\n      0x00\n        /* \"#utility.yul\":4934:4952   */\n      keccak256\n        /* \"#utility.yul\":4926:4952   */\n      swap1\n      pop\n        /* \"#utility.yul\":4872:4959   */\n      swap2\n      swap1\n      pop\n      jump\t// out\n        /* \"#utility.yul\":4965:5064   */\n    tag_87:\n      0x00\n        /* \"#utility.yul\":5051:5056   */\n      dup2\n        /* \"#utility.yul\":5045:5057   */\n      mload\n        /* \"#utility.yul\":5035:5057   */\n      swap1\n      pop\n        /* \"#utility.yul\":5024:5064   */\n      swap2\n      swap1\n      pop\n      jump\t// out\n        /* \"#utility.yul\":5070:5239   */\n    tag_89:\n      0x00\n        /* \"#utility.yul\":5188:5194   */\n      dup3\n        /* \"#utility.yul\":5183:5186   */\n      dup3\n        /* \"#utility.yul\":5176:5195   */\n      mstore\n        /* \"#utility.yul\":5228:5232   */\n      0x20\n        /* \"#utility.yul\":5223:5226   */\n      dup3\n        /* \"#utility.yul\":5219:5233   */\n      add\n        /* \"#utility.yul\":5204:5233   */\n      swap1\n      pop\n        /* \"#utility.yul\":5166:5239   */\n      swap3\n      swap2\n      pop\n      pop\n      jump\t// out\n        /* \"#utility.yul\":5245:5393   */\n    tag_98:\n      0x00\n        /* \"#utility.yul\":5384:5387   */\n      dup2\n        /* \"#utility.yul\":5369:5387   */\n      swap1\n      pop\n        /* \"#utility.yul\":5359:5393   */\n      swap3\n      swap2\n      pop\n      pop\n      jump\t// out\n        /* \"#utility.yul\":5399:5495   */\n    tag_83:\n      0x00\n        /* \"#utility.yul\":5465:5489   */\n      tag_135\n        /* \"#utility.yul\":5483:5488   */\n      dup3\n        /* \"#utility.yul\":5465:5489   */\n      tag_136\n      jump\t// in\n    tag_135:\n        /* \"#utility.yul\":5454:5489   */\n      swap1\n      pop\n        /* \"#utility.yul\":5444:5495   */\n      swap2\n      swap1\n      pop\n      jump\t// out\n        /* \"#utility.yul\":5501:5627   */\n    tag_136:\n      0x00\n        /* \"#utility.yul\":5578:5620   */\n      0xffffffffffffffffffffffffffffffffffffffff\n        /* \"#utility.yul\":5571:5576   */\n      dup3\n        /* \"#utility.yul\":5567:5621   */\n      and\n        /* \"#utility.yul\":5556:5621   */\n      swap1\n      pop\n        /* \"#utility.yul\":5546:5627   */\n      swap2\n      swap1\n      pop\n      jump\t// out\n        /* \"#utility.yul\":5633:5710   */\n    tag_113:\n      0x00\n        /* \"#utility.yul\":5699:5704   */\n      dup2\n        /* \"#utility.yul\":5688:5704   */\n      swap1\n      pop\n        /* \"#utility.yul\":5678:5710   */\n      swap2\n      swap1\n      pop\n      jump\t// out\n        /* \"#utility.yul\":5716:5870   */\n    tag_71:\n        /* \"#utility.yul\":5800:5806   */\n      dup3\n        /* \"#utility.yul\":5795:5798   */\n      dup2\n        /* \"#utility.yul\":5790:5793   */\n      dup4\n        /* \"#utility.yul\":5777:5807   */\n      calldatacopy\n        /* \"#utility.yul\":5862:5863   */\n      0x00\n        /* \"#utility.yul\":5853:5859   */\n      dup4\n        /* \"#utility.yul\":5848:5851   */\n      dup4\n        /* \"#utility.yul\":5844:5860   */\n      add\n        /* \"#utility.yul\":5837:5864   */\n      mstore\n        /* \"#utility.yul\":5767:5870   */\n      pop\n      pop\n      pop\n      jump\t// out\n        /* \"#utility.yul\":5876:6183   */\n    tag_91:\n        /* \"#utility.yul\":5944:5945   */\n      0x00\n        /* \"#utility.yul\":5954:6067   */\n    tag_141:\n        /* \"#utility.yul\":5968:5974   */\n      dup4\n        /* \"#utility.yul\":5965:5966   */\n      dup2\n        /* \"#utility.yul\":5962:5975   */\n      lt\n        /* \"#utility.yul\":5954:6067   */\n      iszero\n      tag_143\n      jumpi\n        /* \"#utility.yul\":6053:6054   */\n      dup1\n        /* \"#utility.yul\":6048:6051   */\n      dup3\n        /* \"#utility.yul\":6044:6055   */\n      add\n        /* \"#utility.yul\":6038:6056   */\n      mload\n        /* \"#utility.yul\":6034:6035   */\n      dup2\n        /* \"#utility.yul\":6029:6032   */\n      dup5\n        /* \"#utility.yul\":6025:6036   */\n      add\n        /* \"#utility.yul\":6018:6057   */\n      mstore\n        /* \"#utility.yul\":5990:5992   */\n      0x20\n        /* \"#utility.yul\":5987:5988   */\n      dup2\n        /* \"#utility.yul\":5983:5993   */\n      add\n        /* \"#utility.yul\":5978:5993   */\n      swap1\n      pop\n        /* \"#utility.yul\":5954:6067   */\n      jump(tag_141)\n    tag_143:\n        /* \"#utility.yul\":6085:6091   */\n      dup4\n        /* \"#utility.yul\":6082:6083   */\n      dup2\n        /* \"#utility.yul\":6079:6092   */\n      gt\n        /* \"#utility.yul\":6076:6078   */\n      iszero\n      tag_144\n      jumpi\n        /* \"#utility.yul\":6165:6166   */\n      0x00\n        /* \"#utility.yul\":6156:6162   */\n      dup5\n        /* \"#utility.yul\":6151:6154   */\n      dup5\n        /* \"#utility.yul\":6147:6163   */\n      add\n        /* \"#utility.yul\":6140:6167   */\n      mstore\n        /* \"#utility.yul\":6076:6078   */\n    tag_144:\n        /* \"#utility.yul\":5925:6183   */\n      pop\n      pop\n      pop\n      pop\n      jump\t// out\n        /* \"#utility.yul\":6189:6509   */\n    tag_47:\n      0x00\n        /* \"#utility.yul\":6270:6271   */\n      0x02\n        /* \"#utility.yul\":6264:6268   */\n      dup3\n        /* \"#utility.yul\":6260:6272   */\n      div\n        /* \"#utility.yul\":6250:6272   */\n      swap1\n      pop\n        /* \"#utility.yul\":6317:6318   */\n      0x01\n        /* \"#utility.yul\":6311:6315   */\n      dup3\n        /* \"#utility.yul\":6307:6319   */\n      and\n        /* \"#utility.yul\":6338:6356   */\n      dup1\n        /* \"#utility.yul\":6328:6330   */\n      tag_146\n      jumpi\n        /* \"#utility.yul\":6394:6398   */\n      0x7f\n        /* \"#utility.yul\":6386:6392   */\n      dup3\n        /* \"#utility.yul\":6382:6399   */\n      and\n        /* \"#utility.yul\":6372:6399   */\n      swap2\n      pop\n        /* \"#utility.yul\":6328:6330   */\n    tag_146:\n        /* \"#utility.yul\":6456:6458   */\n      0x20\n        /* \"#utility.yul\":6448:6454   */\n      dup3\n        /* \"#utility.yul\":6445:6459   */\n      lt\n        /* \"#utility.yul\":6425:6443   */\n      dup2\n        /* \"#utility.yul\":6422:6460   */\n      eq\n        /* \"#utility.yul\":6419:6421   */\n      iszero\n      tag_147\n      jumpi\n        /* \"#utility.yul\":6475:6493   */\n      tag_148\n      tag_149\n      jump\t// in\n    tag_148:\n        /* \"#utility.yul\":6419:6421   */\n    tag_147:\n        /* \"#utility.yul\":6240:6509   */\n      pop\n      swap2\n      swap1\n      pop\n      jump\t// out\n        /* \"#utility.yul\":6515:6748   */\n    tag_41:\n      0x00\n        /* \"#utility.yul\":6577:6601   */\n      tag_151\n        /* \"#utility.yul\":6595:6600   */\n      dup3\n        /* \"#utility.yul\":6577:6601   */\n      tag_113\n      jump\t// in\n    tag_151:\n        /* \"#utility.yul\":6568:6601   */\n      swap2\n      pop\n        /* \"#utility.yul\":6623:6689   */\n      0xffffffffffffffffffffffffffffffffffffffffffffffffffffffffffffffff\n        /* \"#utility.yul\":6616:6621   */\n      dup3\n        /* \"#utility.yul\":6613:6690   */\n      eq\n        /* \"#utility.yul\":6610:6612   */\n      iszero\n      tag_152\n      jumpi\n        /* \"#utility.yul\":6693:6711   */\n      tag_153\n      tag_154\n      jump\t// in\n    tag_153:\n        /* \"#utility.yul\":6610:6612   */\n    tag_152:\n        /* \"#utility.yul\":6740:6741   */\n      0x01\n        /* \"#utility.yul\":6733:6738   */\n      dup3\n        /* \"#utility.yul\":6729:6742   */\n      add\n        /* \"#utility.yul\":6722:6742   */\n      swap1\n      pop\n        /* \"#utility.yul\":6558:6748   */\n      swap2\n      swap1\n      pop\n      jump\t// out\n        /* \"#utility.yul\":6754:6934   */\n    tag_154:\n        /* \"#utility.yul\":6802:6879   */\n      0x4e487b7100000000000000000000000000000000000000000000000000000000\n        /* \"#utility.yul\":6799:6800   */\n      0x00\n        /* \"#utility.yul\":6792:6880   */\n      mstore\n        /* \"#utility.yul\":6899:6903   */\n      0x11\n        /* \"#utility.yul\":6896:6897   */\n      0x04\n        /* \"#utility.yul\":6889:6904   */\n      mstore\n        /* \"#utility.yul\":6923:6927   */\n      0x24\n        /* \"#utility.yul\":6920:6921   */\n      0x00\n        /* \"#utility.yul\":6913:6928   */\n      revert\n        /* \"#utility.yul\":6940:7120   */\n    tag_149:\n        /* \"#utility.yul\":6988:7065   */\n      0x4e487b7100000000000000000000000000000000000000000000000000000000\n        /* \"#utility.yul\":6985:6986   */\n      0x00\n        /* \"#utility.yul\":6978:7066   */\n      mstore\n        /* \"#utility.yul\":7085:7089   */\n      0x22\n        /* \"#utility.yul\":7082:7083   */\n      0x04\n        /* \"#utility.yul\":7075:7090   */\n      mstore\n        /* \"#utility.yul\":7109:7113   */\n      0x24\n        /* \"#utility.yul\":7106:7107   */\n      0x00\n        /* \"#utility.yul\":7099:7114   */\n      revert\n        /* \"#utility.yul\":7126:7306   */\n    tag_126:\n        /* \"#utility.yul\":7174:7251   */\n      0x4e487b7100000000000000000000000000000000000000000000000000000000\n        /* \"#utility.yul\":7171:7172   */\n      0x00\n        /* \"#utility.yul\":7164:7252   */\n      mstore\n        /* \"#utility.yul\":7271:7275   */\n      0x41\n        /* \"#utility.yul\":7268:7269   */\n      0x04\n        /* \"#utility.yul\":7261:7276   */\n      mstore\n        /* \"#utility.yul\":7295:7299   */\n      0x24\n        /* \"#utility.yul\":7292:7293   */\n      0x00\n        /* \"#utility.yul\":7285:7300   */\n      revert\n        /* \"#utility.yul\":7312:7414   */\n    tag_93:\n      0x00\n        /* \"#utility.yul\":7404:7406   */\n      0x1f\n        /* \"#utility.yul\":7400:7407   */\n      not\n        /* \"#utility.yul\":7395:7397   */\n      0x1f\n        /* \"#utility.yul\":7388:7393   */\n      dup4\n        /* \"#utility.yul\":7384:7398   */\n      add\n        /* \"#utility.yul\":7380:7408   */\n      and\n        /* \"#utility.yul\":7370:7408   */\n      swap1\n      pop\n        /* \"#utility.yul\":7360:7414   */\n      swap2\n      swap1\n      pop\n      jump\t// out\n\n    auxdata: 0xa26469706673582212201d646c7c9e7b0abac601dba498a4b95800904cb99d6a5b15b235df5942c14c2f64736f6c63430008000033\n}\n",
				"bytecode": {
					"linkReferences": {},
					"object": "608060405234801561001057600080fd5b50604051806060016040528060238152602001610981602391396000908051906020019061003f92919061008e565b50600060018190555033600260006101000a81548173ffffffffffffffffffffffffffffffffffffffff021916908373ffffffffffffffffffffffffffffffffffffffff160217905550610192565b82805461009a90610131565b90600052602060002090601f0160209004810192826100bc5760008555610103565b82601f106100d557805160ff1916838001178555610103565b82800160010185558215610103579182015b828111156101025782518255916020019190600101906100e7565b5b5090506101109190610114565b5090565b5b8082111561012d576000816000905550600101610115565b5090565b6000600282049050600182168061014957607f821691505b6020821081141561015d5761015c610163565b5b50919050565b7f4e487b7100000000000000000000000000000000000000000000000000000000600052602260045260246000fd5b6107e0806101a16000396000f3fe608060405234801561001057600080fd5b506004361061007d5760003560e01c80639e0ce0ea1161005b5780639e0ce0ea146100dc578063bf2f64d3146100f8578063ce6d41de14610116578063e21f37ce146101345761007d565b806352a07d181461008257806353d27cc2146100a057806377d0c9f2146100be575b600080fd5b61008a610152565b604051610097919061051e565b60405180910390f35b6100a8610178565b6040516100b5919061055b565b60405180910390f35b6100c661017e565b6040516100d3919061055b565b60405180910390f35b6100f660048036038101906100f191906103a5565b610188565b005b6101006101ba565b60405161010d919061051e565b60405180910390f35b61011e6101e4565b60405161012b9190610539565b60405180910390f35b61013c61020c565b6040516101499190610539565b60405180910390f35b600260009054906101000a900473ffffffffffffffffffffffffffffffffffffffff1681565b60015481565b6000600154905090565b806000908051906020019061019e92919061029a565b50600160008154809291906101b2906106c3565b919050555050565b6000600260009054906101000a900473ffffffffffffffffffffffffffffffffffffffff16905090565b606060006040516020016101f891906104fc565b604051602081830303815290604052905090565b6000805461021990610691565b80601f016020809104026020016040519081016040528092919081815260200182805461024590610691565b80156102925780601f1061026757610100808354040283529160200191610292565b820191906000526020600020905b81548152906001019060200180831161027557829003601f168201915b505050505081565b8280546102a690610691565b90600052602060002090601f0160209004810192826102c8576000855561030f565b82601f106102e157805160ff191683800117855561030f565b8280016001018555821561030f579182015b8281111561030e5782518255916020019190600101906102f3565b5b50905061031c9190610320565b5090565b5b80821115610339576000816000905550600101610321565b5090565b600061035061034b846105a7565b610576565b90508281526020810184848401111561036857600080fd5b61037384828561064f565b509392505050565b600082601f83011261038c57600080fd5b813561039c84826020860161033d565b91505092915050565b6000602082840312156103b757600080fd5b600082013567ffffffffffffffff8111156103d157600080fd5b6103dd8482850161037b565b91505092915050565b6103ef81610613565b82525050565b6000610400826105ec565b61040a81856105f7565b935061041a81856020860161065e565b61042381610799565b840191505092915050565b6000815461043b81610691565b6104458186610608565b945060018216600081146104605760018114610471576104a4565b60ff198316865281860193506104a4565b61047a856105d7565b60005b8381101561049c5781548189015260018201915060208101905061047d565b838801955050505b50505092915050565b60006104ba600b83610608565b91507f202d20536f6c69646974790000000000000000000000000000000000000000006000830152600b82019050919050565b6104f681610645565b82525050565b6000610508828461042e565b9150610513826104ad565b915081905092915050565b600060208201905061053360008301846103e6565b92915050565b6000602082019050818103600083015261055381846103f5565b905092915050565b600060208201905061057060008301846104ed565b92915050565b6000604051905081810181811067ffffffffffffffff8211171561059d5761059c61076a565b5b8060405250919050565b600067ffffffffffffffff8211156105c2576105c161076a565b5b601f19601f8301169050602081019050919050565b60008190508160005260206000209050919050565b600081519050919050565b600082825260208201905092915050565b600081905092915050565b600061061e82610625565b9050919050565b600073ffffffffffffffffffffffffffffffffffffffff82169050919050565b6000819050919050565b82818337600083830152505050565b60005b8381101561067c578082015181840152602081019050610661565b8381111561068b576000848401525b50505050565b600060028204905060018216806106a957607f821691505b602082108114156106bd576106bc61073b565b5b50919050565b60006106ce82610645565b91507fffffffffffffffffffffffffffffffffffffffffffffffffffffffffffffffff8214156107015761070061070c565b5b600182019050919050565b7f4e487b7100000000000000000000000000000000000000000000000000000000600052601160045260246000fd5b7f4e487b7100000000000000000000000000000000000000000000000000000000600052602260045260246000fd5b7f4e487b7100000000000000000000000000000000000000000000000000000000600052604160045260246000fd5b6000601f19601f830116905091905056fea26469706673582212201d646c7c9e7b0abac601dba498a4b95800904cb99d6a5b15b235df5942c14c2f64736f6c63430008000033486f6c6120426c6f636b636861696e21204d69207072696d657220636f6e747261746f",
					"opcodes": "PUSH1 0x80 PUSH1 0x40 MSTORE CALLVALUE DUP1 ISZERO PUSH2 0x10 JUMPI PUSH1 0x0 DUP1 REVERT JUMPDEST POP PUSH1 0x40 MLOAD DUP1 PUSH1 0x60 ADD PUSH1 0x40 MSTORE DUP1 PUSH1 0x23 DUP2 MSTORE PUSH1 0x20 ADD PUSH2 0x981 PUSH1 0x23 SWAP2 CODECOPY PUSH1 0x0 SWAP1 DUP1 MLOAD SWAP1 PUSH1 0x20 ADD SWAP1 PUSH2 0x3F SWAP3 SWAP2 SWAP1 PUSH2 0x8E JUMP JUMPDEST POP PUSH1 0x0 PUSH1 0x1 DUP2 SWAP1 SSTORE POP CALLER PUSH1 0x2 PUSH1 0x0 PUSH2 0x100 EXP DUP2 SLOAD DUP2 PUSH20 0xFFFFFFFFFFFFFFFFFFFFFFFFFFFFFFFFFFFFFFFF MUL NOT AND SWAP1 DUP4 PUSH20 0xFFFFFFFFFFFFFFFFFFFFFFFFFFFFFFFFFFFFFFFF AND MUL OR SWAP1 SSTORE POP PUSH2 0x192 JUMP JUMPDEST DUP3 DUP1 SLOAD PUSH2 0x9A SWAP1 PUSH2 0x131 JUMP JUMPDEST SWAP1 PUSH1 0x0 MSTORE PUSH1 0x20 PUSH1 0x0 KECCAK256 SWAP1 PUSH1 0x1F ADD PUSH1 0x20 SWAP1 DIV DUP2 ADD SWAP3 DUP3 PUSH2 0xBC JUMPI PUSH1 0x0 DUP6 SSTORE PUSH2 0x103 JUMP JUMPDEST DUP3 PUSH1 0x1F LT PUSH2 0xD5 JUMPI DUP1 MLOAD PUSH1 0xFF NOT AND DUP4 DUP1 ADD OR DUP6 SSTORE PUSH2 0x103 JUMP JUMPDEST DUP3 DUP1 ADD PUSH1 0x1 ADD DUP6 SSTORE DUP3 ISZERO PUSH2 0x103 JUMPI SWAP2 DUP3 ADD JUMPDEST DUP3 DUP2 GT ISZERO PUSH2 0x102 JUMPI DUP3 MLOAD DUP3 SSTORE SWAP2 PUSH1 0x20 ADD SWAP2 SWAP1 PUSH1 0x1 ADD SWAP1 PUSH2 0xE7 JUMP JUMPDEST JUMPDEST POP SWAP1 POP PUSH2 0x110 SWAP2 SWAP1 PUSH2 0x114 JUMP JUMPDEST POP SWAP1 JUMP JUMPDEST JUMPDEST DUP1 DUP3 GT ISZERO PUSH2 0x12D JUMPI PUSH1 0x0 DUP2 PUSH1 0x0 SWAP1 SSTORE POP PUSH1 0x1 ADD PUSH2 0x115 JUMP JUMPDEST POP SWAP1 JUMP JUMPDEST PUSH1 0x0 PUSH1 0x2 DUP3 DIV SWAP1 POP PUSH1 0x1 DUP3 AND DUP1 PUSH2 0x149 JUMPI PUSH1 0x7F DUP3 AND SWAP2 POP JUMPDEST PUSH1 0x20 DUP3 LT DUP2 EQ ISZERO PUSH2 0x15D JUMPI PUSH2 0x15C PUSH2 0x163 JUMP JUMPDEST JUMPDEST POP SWAP2 SWAP1 POP JUMP JUMPDEST PUSH32 0x4E487B7100000000000000000000000000000000000000000000000000000000 PUSH1 0x0 MSTORE PUSH1 0x22 PUSH1 0x4 MSTORE PUSH1 0x24 PUSH1 0x0 REVERT JUMPDEST PUSH2 0x7E0 DUP1 PUSH2 0x1A1 PUSH1 0x0 CODECOPY PUSH1 0x0 RETURN INVALID PUSH1 0x80 PUSH1 0x40 MSTORE CALLVALUE DUP1 ISZERO PUSH2 0x10 JUMPI PUSH1 0x0 DUP1 REVERT JUMPDEST POP PUSH1 0x4 CALLDATASIZE LT PUSH2 0x7D JUMPI PUSH1 0x0 CALLDATALOAD PUSH1 0xE0 SHR DUP1 PUSH4 0x9E0CE0EA GT PUSH2 0x5B JUMPI DUP1 PUSH4 0x9E0CE0EA EQ PUSH2 0xDC JUMPI DUP1 PUSH4 0xBF2F64D3 EQ PUSH2 0xF8 JUMPI DUP1 PUSH4 0xCE6D41DE EQ PUSH2 0x116 JUMPI DUP1 PUSH4 0xE21F37CE EQ PUSH2 0x134 JUMPI PUSH2 0x7D JUMP JUMPDEST DUP1 PUSH4 0x52A07D18 EQ PUSH2 0x82 JUMPI DUP1 PUSH4 0x53D27CC2 EQ PUSH2 0xA0 JUMPI DUP1 PUSH4 0x77D0C9F2 EQ PUSH2 0xBE JUMPI JUMPDEST PUSH1 0x0 DUP1 REVERT JUMPDEST PUSH2 0x8A PUSH2 0x152 JUMP JUMPDEST PUSH1 0x40 MLOAD PUSH2 0x97 SWAP2 SWAP1 PUSH2 0x51E JUMP JUMPDEST PUSH1 0x40 MLOAD DUP1 SWAP2 SUB SWAP1 RETURN JUMPDEST PUSH2 0xA8 PUSH2 0x178 JUMP JUMPDEST PUSH1 0x40 MLOAD PUSH2 0xB5 SWAP2 SWAP1 PUSH2 0x55B JUMP JUMPDEST PUSH1 0x40 MLOAD DUP1 SWAP2 SUB SWAP1 RETURN JUMPDEST PUSH2 0xC6 PUSH2 0x17E JUMP JUMPDEST PUSH1 0x40 MLOAD PUSH2 0xD3 SWAP2 SWAP1 PUSH2 0x55B JUMP JUMPDEST PUSH1 0x40 MLOAD DUP1 SWAP2 SUB SWAP1 RETURN JUMPDEST PUSH2 0xF6 PUSH1 0x4 DUP1 CALLDATASIZE SUB DUP2 ADD SWAP1 PUSH2 0xF1 SWAP2 SWAP1 PUSH2 0x3A5 JUMP JUMPDEST PUSH2 0x188 JUMP JUMPDEST STOP JUMPDEST PUSH2 0x100 PUSH2 0x1BA JUMP JUMPDEST PUSH1 0x40 MLOAD PUSH2 0x10D SWAP2 SWAP1 PUSH2 0x51E JUMP JUMPDEST PUSH1 0x40 MLOAD DUP1 SWAP2 SUB SWAP1 RETURN JUMPDEST PUSH2 0x11E PUSH2 0x1E4 JUMP JUMPDEST PUSH1 0x40 MLOAD PUSH2 0x12B SWAP2 SWAP1 PUSH2 0x539 JUMP JUMPDEST PUSH1 0x40 MLOAD DUP1 SWAP2 SUB SWAP1 RETURN JUMPDEST PUSH2 0x13C PUSH2 0x20C JUMP JUMPDEST PUSH1 0x40 MLOAD PUSH2 0x149 SWAP2 SWAP1 PUSH2 0x539 JUMP JUMPDEST PUSH1 0x40 MLOAD DUP1 SWAP2 SUB SWAP1 RETURN JUMPDEST PUSH1 0x2 PUSH1 0x0 SWAP1 SLOAD SWAP1 PUSH2 0x100 EXP SWAP1 DIV PUSH20 0xFFFFFFFFFFFFFFFFFFFFFFFFFFFFFFFFFFFFFFFF AND DUP2 JUMP JUMPDEST PUSH1 0x1 SLOAD DUP2 JUMP JUMPDEST PUSH1 0x0 PUSH1 0x1 SLOAD SWAP1 POP SWAP1 JUMP JUMPDEST DUP1 PUSH1 0x0 SWAP1 DUP1 MLOAD SWAP1 PUSH1 0x20 ADD SWAP1 PUSH2 0x19E SWAP3 SWAP2 SWAP1 PUSH2 0x29A JUMP JUMPDEST POP PUSH1 0x1 PUSH1 0x0 DUP2 SLOAD DUP1 SWAP3 SWAP2 SWAP1 PUSH2 0x1B2 SWAP1 PUSH2 0x6C3 JUMP JUMPDEST SWAP2 SWAP1 POP SSTORE POP POP JUMP JUMPDEST PUSH1 0x0 PUSH1 0x2 PUSH1 0x0 SWAP1 SLOAD SWAP1 PUSH2 0x100 EXP SWAP1 DIV PUSH20 0xFFFFFFFFFFFFFFFFFFFFFFFFFFFFFFFFFFFFFFFF AND SWAP1 POP SWAP1 JUMP JUMPDEST PUSH1 0x60 PUSH1 0x0 PUSH1 0x40 MLOAD PUSH1 0x20 ADD PUSH2 0x1F8 SWAP2 SWAP1 PUSH2 0x4FC JUMP JUMPDEST PUSH1 0x40 MLOAD PUSH1 0x20 DUP2 DUP4 SUB SUB DUP2 MSTORE SWAP1 PUSH1 0x40 MSTORE SWAP1 POP SWAP1 JUMP JUMPDEST PUSH1 0x0 DUP1 SLOAD PUSH2 0x219 SWAP1 PUSH2 0x691 JUMP JUMPDEST DUP1 PUSH1 0x1F ADD PUSH1 0x20 DUP1 SWAP2 DIV MUL PUSH1 0x20 ADD PUSH1 0x40 MLOAD SWAP1 DUP2 ADD PUSH1 0x40 MSTORE DUP1 SWAP3 SWAP2 SWAP1 DUP2 DUP2 MSTORE PUSH1 0x20 ADD DUP3 DUP1 SLOAD PUSH2 0x245 SWAP1 PUSH2 0x691 JUMP JUMPDEST DUP1 ISZERO PUSH2 0x292 JUMPI DUP1 PUSH1 0x1F LT PUSH2 0x267 JUMPI PUSH2 0x100 DUP1 DUP4 SLOAD DIV MUL DUP4 MSTORE SWAP2 PUSH1 0x20 ADD SWAP2 PUSH2 0x292 JUMP JUMPDEST DUP3 ADD SWAP2 SWAP1 PUSH1 0x0 MSTORE PUSH1 0x20 PUSH1 0x0 KECCAK256 SWAP1 JUMPDEST DUP2 SLOAD DUP2 MSTORE SWAP1 PUSH1 0x1 ADD SWAP1 PUSH1 0x20 ADD DUP1 DUP4 GT PUSH2 0x275 JUMPI DUP3 SWAP1 SUB PUSH1 0x1F AND DUP3 ADD SWAP2 JUMPDEST POP POP POP POP POP DUP2 JUMP JUMPDEST DUP3 DUP1 SLOAD PUSH2 0x2A6 SWAP1 PUSH2 0x691 JUMP JUMPDEST SWAP1 PUSH1 0x0 MSTORE PUSH1 0x20 PUSH1 0x0 KECCAK256 SWAP1 PUSH1 0x1F ADD PUSH1 0x20 SWAP1 DIV DUP2 ADD SWAP3 DUP3 PUSH2 0x2C8 JUMPI PUSH1 0x0 DUP6 SSTORE PUSH2 0x30F JUMP JUMPDEST DUP3 PUSH1 0x1F LT PUSH2 0x2E1 JUMPI DUP1 MLOAD PUSH1 0xFF NOT AND DUP4 DUP1 ADD OR DUP6 SSTORE PUSH2 0x30F JUMP JUMPDEST DUP3 DUP1 ADD PUSH1 0x1 ADD DUP6 SSTORE DUP3 ISZERO PUSH2 0x30F JUMPI SWAP2 DUP3 ADD JUMPDEST DUP3 DUP2 GT ISZERO PUSH2 0x30E JUMPI DUP3 MLOAD DUP3 SSTORE SWAP2 PUSH1 0x20 ADD SWAP2 SWAP1 PUSH1 0x1 ADD SWAP1 PUSH2 0x2F3 JUMP JUMPDEST JUMPDEST POP SWAP1 POP PUSH2 0x31C SWAP2 SWAP1 PUSH2 0x320 JUMP JUMPDEST POP SWAP1 JUMP JUMPDEST JUMPDEST DUP1 DUP3 GT ISZERO PUSH2 0x339 JUMPI PUSH1 0x0 DUP2 PUSH1 0x0 SWAP1 SSTORE POP PUSH1 0x1 ADD PUSH2 0x321 JUMP JUMPDEST POP SWAP1 JUMP JUMPDEST PUSH1 0x0 PUSH2 0x350 PUSH2 0x34B DUP5 PUSH2 0x5A7 JUMP JUMPDEST PUSH2 0x576 JUMP JUMPDEST SWAP1 POP DUP3 DUP2 MSTORE PUSH1 0x20 DUP2 ADD DUP5 DUP5 DUP5 ADD GT ISZERO PUSH2 0x368 JUMPI PUSH1 0x0 DUP1 REVERT JUMPDEST PUSH2 0x373 DUP5 DUP3 DUP6 PUSH2 0x64F JUMP JUMPDEST POP SWAP4 SWAP3 POP POP POP JUMP JUMPDEST PUSH1 0x0 DUP3 PUSH1 0x1F DUP4 ADD SLT PUSH2 0x38C JUMPI PUSH1 0x0 DUP1 REVERT JUMPDEST DUP2 CALLDATALOAD PUSH2 0x39C DUP5 DUP3 PUSH1 0x20 DUP7 ADD PUSH2 0x33D JUMP JUMPDEST SWAP2 POP POP SWAP3 SWAP2 POP POP JUMP JUMPDEST PUSH1 0x0 PUSH1 0x20 DUP3 DUP5 SUB SLT ISZERO PUSH2 0x3B7 JUMPI PUSH1 0x0 DUP1 REVERT JUMPDEST PUSH1 0x0 DUP3 ADD CALLDATALOAD PUSH8 0xFFFFFFFFFFFFFFFF DUP2 GT ISZERO PUSH2 0x3D1 JUMPI PUSH1 0x0 DUP1 REVERT JUMPDEST PUSH2 0x3DD DUP5 DUP3 DUP6 ADD PUSH2 0x37B JUMP JUMPDEST SWAP2 POP POP SWAP3 SWAP2 POP POP JUMP JUMPDEST PUSH2 0x3EF DUP2 PUSH2 0x613 JUMP JUMPDEST DUP3 MSTORE POP POP JUMP JUMPDEST PUSH1 0x0 PUSH2 0x400 DUP3 PUSH2 0x5EC JUMP JUMPDEST PUSH2 0x40A DUP2 DUP6 PUSH2 0x5F7 JUMP JUMPDEST SWAP4 POP PUSH2 0x41A DUP2 DUP6 PUSH1 0x20 DUP7 ADD PUSH2 0x65E JUMP JUMPDEST PUSH2 0x423 DUP2 PUSH2 0x799 JUMP JUMPDEST DUP5 ADD SWAP2 POP POP SWAP3 SWAP2 POP POP JUMP JUMPDEST PUSH1 0x0 DUP2 SLOAD PUSH2 0x43B DUP2 PUSH2 0x691 JUMP JUMPDEST PUSH2 0x445 DUP2 DUP7 PUSH2 0x608 JUMP JUMPDEST SWAP5 POP PUSH1 0x1 DUP3 AND PUSH1 0x0 DUP2 EQ PUSH2 0x460 JUMPI PUSH1 0x1 DUP2 EQ PUSH2 0x471 JUMPI PUSH2 0x4A4 JUMP JUMPDEST PUSH1 0xFF NOT DUP4 AND DUP7 MSTORE DUP2 DUP7 ADD SWAP4 POP PUSH2 0x4A4 JUMP JUMPDEST PUSH2 0x47A DUP6 PUSH2 0x5D7 JUMP JUMPDEST PUSH1 0x0 JUMPDEST DUP4 DUP2 LT ISZERO PUSH2 0x49C JUMPI DUP2 SLOAD DUP2 DUP10 ADD MSTORE PUSH1 0x1 DUP3 ADD SWAP2 POP PUSH1 0x20 DUP2 ADD SWAP1 POP PUSH2 0x47D JUMP JUMPDEST DUP4 DUP9 ADD SWAP6 POP POP POP JUMPDEST POP POP POP SWAP3 SWAP2 POP POP JUMP JUMPDEST PUSH1 0x0 PUSH2 0x4BA PUSH1 0xB DUP4 PUSH2 0x608 JUMP JUMPDEST SWAP2 POP PUSH32 0x202D20536F6C6964697479000000000000000000000000000000000000000000 PUSH1 0x0 DUP4 ADD MSTORE PUSH1 0xB DUP3 ADD SWAP1 POP SWAP2 SWAP1 POP JUMP JUMPDEST PUSH2 0x4F6 DUP2 PUSH2 0x645 JUMP JUMPDEST DUP3 MSTORE POP POP JUMP JUMPDEST PUSH1 0x0 PUSH2 0x508 DUP3 DUP5 PUSH2 0x42E JUMP JUMPDEST SWAP2 POP PUSH2 0x513 DUP3 PUSH2 0x4AD JUMP JUMPDEST SWAP2 POP DUP2 SWAP1 POP SWAP3 SWAP2 POP POP JUMP JUMPDEST PUSH1 0x0 PUSH1 0x20 DUP3 ADD SWAP1 POP PUSH2 0x533 PUSH1 0x0 DUP4 ADD DUP5 PUSH2 0x3E6 JUMP JUMPDEST SWAP3 SWAP2 POP POP JUMP JUMPDEST PUSH1 0x0 PUSH1 0x20 DUP3 ADD SWAP1 POP DUP2 DUP2 SUB PUSH1 0x0 DUP4 ADD MSTORE PUSH2 0x553 DUP2 DUP5 PUSH2 0x3F5 JUMP JUMPDEST SWAP1 POP SWAP3 SWAP2 POP POP JUMP JUMPDEST PUSH1 0x0 PUSH1 0x20 DUP3 ADD SWAP1 POP PUSH2 0x570 PUSH1 0x0 DUP4 ADD DUP5 PUSH2 0x4ED JUMP JUMPDEST SWAP3 SWAP2 POP POP JUMP JUMPDEST PUSH1 0x0 PUSH1 0x40 MLOAD SWAP1 POP DUP2 DUP2 ADD DUP2 DUP2 LT PUSH8 0xFFFFFFFFFFFFFFFF DUP3 GT OR ISZERO PUSH2 0x59D JUMPI PUSH2 0x59C PUSH2 0x76A JUMP JUMPDEST JUMPDEST DUP1 PUSH1 0x40 MSTORE POP SWAP2 SWAP1 POP JUMP JUMPDEST PUSH1 0x0 PUSH8 0xFFFFFFFFFFFFFFFF DUP3 GT ISZERO PUSH2 0x5C2 JUMPI PUSH2 0x5C1 PUSH2 0x76A JUMP JUMPDEST JUMPDEST PUSH1 0x1F NOT PUSH1 0x1F DUP4 ADD AND SWAP1 POP PUSH1 0x20 DUP2 ADD SWAP1 POP SWAP2 SWAP1 POP JUMP JUMPDEST PUSH1 0x0 DUP2 SWAP1 POP DUP2 PUSH1 0x0 MSTORE PUSH1 0x20 PUSH1 0x0 KECCAK256 SWAP1 POP SWAP2 SWAP1 POP JUMP JUMPDEST PUSH1 0x0 DUP2 MLOAD SWAP1 POP SWAP2 SWAP1 POP JUMP JUMPDEST PUSH1 0x0 DUP3 DUP3 MSTORE PUSH1 0x20 DUP3 ADD SWAP1 POP SWAP3 SWAP2 POP POP JUMP JUMPDEST PUSH1 0x0 DUP2 SWAP1 POP SWAP3 SWAP2 POP POP JUMP JUMPDEST PUSH1 0x0 PUSH2 0x61E DUP3 PUSH2 0x625 JUMP JUMPDEST SWAP1 POP SWAP2 SWAP1 POP JUMP JUMPDEST PUSH1 0x0 PUSH20 0xFFFFFFFFFFFFFFFFFFFFFFFFFFFFFFFFFFFFFFFF DUP3 AND SWAP1 POP SWAP2 SWAP1 POP JUMP JUMPDEST PUSH1 0x0 DUP2 SWAP1 POP SWAP2 SWAP1 POP JUMP JUMPDEST DUP3 DUP2 DUP4 CALLDATACOPY PUSH1 0x0 DUP4 DUP4 ADD MSTORE POP POP POP JUMP JUMPDEST PUSH1 0x0 JUMPDEST DUP4 DUP2 LT ISZERO PUSH2 0x67C JUMPI DUP1 DUP3 ADD MLOAD DUP2 DUP5 ADD MSTORE PUSH1 0x20 DUP2 ADD SWAP1 POP PUSH2 0x661 JUMP JUMPDEST DUP4 DUP2 GT ISZERO PUSH2 0x68B JUMPI PUSH1 0x0 DUP5 DUP5 ADD MSTORE JUMPDEST POP POP POP POP JUMP JUMPDEST PUSH1 0x0 PUSH1 0x2 DUP3 DIV SWAP1 POP PUSH1 0x1 DUP3 AND DUP1 PUSH2 0x6A9 JUMPI PUSH1 0x7F DUP3 AND SWAP2 POP JUMPDEST PUSH1 0x20 DUP3 LT DUP2 EQ ISZERO PUSH2 0x6BD JUMPI PUSH2 0x6BC PUSH2 0x73B JUMP JUMPDEST JUMPDEST POP SWAP2 SWAP1 POP JUMP JUMPDEST PUSH1 0x0 PUSH2 0x6CE DUP3 PUSH2 0x645 JUMP JUMPDEST SWAP2 POP PUSH32 0xFFFFFFFFFFFFFFFFFFFFFFFFFFFFFFFFFFFFFFFFFFFFFFFFFFFFFFFFFFFFFFFF DUP3 EQ ISZERO PUSH2 0x701 JUMPI PUSH2 0x700 PUSH2 0x70C JUMP JUMPDEST JUMPDEST PUSH1 0x1 DUP3 ADD SWAP1 POP SWAP2 SWAP1 POP JUMP JUMPDEST PUSH32 0x4E487B7100000000000000000000000000000000000000000000000000000000 PUSH1 0x0 MSTORE PUSH1 0x11 PUSH1 0x4 MSTORE PUSH1 0x24 PUSH1 0x0 REVERT JUMPDEST PUSH32 0x4E487B7100000000000000000000000000000000000000000000000000000000 PUSH1 0x0 MSTORE PUSH1 0x22 PUSH1 0x4 MSTORE PUSH1 0x24 PUSH1 0x0 REVERT JUMPDEST PUSH32 0x4E487B7100000000000000000000000000000000000000000000000000000000 PUSH1 0x0 MSTORE PUSH1 0x41 PUSH1 0x4 MSTORE PUSH1 0x24 PUSH1 0x0 REVERT JUMPDEST PUSH1 0x0 PUSH1 0x1F NOT PUSH1 0x1F DUP4 ADD AND SWAP1 POP SWAP2 SWAP1 POP JUMP INVALID LOG2 PUSH5 0x6970667358 0x22 SLT KECCAK256 SAR PUSH5 0x6C7C9E7B0A 0xBA 0xC6 ADD 0xDB LOG4 SWAP9 LOG4 0xB9 PC STOP SWAP1 0x4C 0xB9 SWAP14 PUSH11 0x5B15B235DF5942C14C2F64 PUSH20 0x6F6C63430008000033486F6C6120426C6F636B63 PUSH9 0x61696E21204D692070 PUSH19 0x696D657220636F6E747261746F000000000000 "
				},
				"gasEstimates": {
					"creation": {
						"codeDepositCost": "403200",
						"executionCost": "infinite",
						"totalCost": "infinite"
					},
					"external": {
						"cambiarMensaje(string)": "infinite",
						"contador()": "1152",
						"dueno()": "1215",
						"getMessage()": "infinite",
						"message()": "infinite",
						"obtenerContador()": "1182",
						"obtenerDueno()": "1244"
					}
				},
				"methodIdentifiers": {
					"cambiarMensaje(string)": "9e0ce0ea",
					"contador()": "53d27cc2",
					"dueno()": "52a07d18",
					"getMessage()": "ce6d41de",
					"message()": "e21f37ce",
					"obtenerContador()": "77d0c9f2",
					"obtenerDueno()": "bf2f64d3"
				}
			},
			"storageLayout": {
				"storage": [
					{
						"astId": 3,
						"contract": "HolaMundo1.sol:HolaMundo",
						"label": "message",
						"offset": 0,
						"slot": "0",
						"type": "t_string_storage"
					},
					{
						"astId": 5,
						"contract": "HolaMundo1.sol:HolaMundo",
						"label": "contador",
						"offset": 0,
						"slot": "1",
						"type": "t_uint256"
					},
					{
						"astId": 7,
						"contract": "HolaMundo1.sol:HolaMundo",
						"label": "dueno",
						"offset": 0,
						"slot": "2",
						"type": "t_address"
					}
				],
				"types": {
					"t_address": {
						"encoding": "inplace",
						"label": "address",
						"numberOfBytes": "20"
					},
					"t_string_storage": {
						"encoding": "bytes",
						"label": "string",
						"numberOfBytes": "32"
					},
					"t_uint256": {
						"encoding": "inplace",
						"label": "uint256",
						"numberOfBytes": "32"
					}
				}
			},
			"userdoc": {
				"kind": "user",
				"methods": {},
				"version": 1
			}
		}
	}
}